:020000040800F2
:10000000780F002055020008B1750008BD1E0008D9
:100010002975000879170008C37D0008000000005A
:1000200000000000000000000000000099770008B8
:1000300021190008000000002D760008A5790008AD
:100040006F0200086F0200086F0200086F020008CC
:100050006F0200086F0200086F0200086F020008BC
:100060006F0200086F0200086F0200086F020008AC
:100070006F0200086F0200086F0200086F0200089C
:100080006F0200086F0200086F0200086F0200088C
:100090006F0200086F0200086F0200086F0200087C
:1000A0006F0200086F0200086F0200086F0200086C
:1000B0006F0200086F0200086F0200086F0200085C
:1000C0006F0200086F0200086F0200086F0200084C
:1000D0006F020008597B00086F020008E17B0008EE
:1000E0006F0200086F0200086F0200086F0200082C
:1000F0006F0200086F0200086F0200086F0200081C
:100100006F0200086F0200086F0200086F0200080B
:100110006F0200086F0200086F0200086F020008FB
:100120006F0200086F0200086F0200086F020008EB
:100130006F0200086F0200086F0200086F020008DB
:100140006F0200086F0200086F0200086F020008CB
:100150006F0200086F0200086F0200086F020008BB
:100160006F0200086F0200086F0200086F020008AB
:100170006F0200086F0200086F0200086F0200089B
:100180006F0200086F02000800F002F800F052F859
:100190000AA090E8000C82448344AAF10107DA45E2
:1001A00001D100F047F8AFF2090EBAE80F0013F0E2
:1001B000010F18BFFB1A43F00103184778AF000086
:1001C00098AF0000103A24BF78C878C1FAD8520717
:1001D00024BF30C830C144BF04680C6070470000C1
:1001E0000023002400250026103A28BF78C1FBD840
:1001F000520728BF30C148BF0B607047662909F01D
:100200002D82642900F0B880782900F0F1807329EC
:1002100000F07784002070471FB509F01AFA00F04B
:1002200087FC04000020002109F04EF8E0601FBDAB
:1002300010B510BD00F080FD1146FFF7EDFF08F08E
:10024000FBFD00F09EFD03B4FFF7F2FF03BC08F0D6
:1002500018F900000948804709480047FEE7FEE713
:10026000FEE7FEE7FEE7FEE7FEE7FEE7FEE7FEE766
:1002700004480549054A064B70470000A979000863
:100280008901000878090020780F0020780B0020F1
:10029000780B0020704700000FB4044910B503AA82
:1002A000029800F033FC10BC5DF814FB1400002031
:1002B0000FB41CB5074B06AA7B446946009005980D
:1002C00000F0F5FB0020694600F004FC1CBC5DF862
:1002D00014FB00001908000070B504468569006829
:1002E000C10601D5302600E02026C00707D070BD2A
:1002F000D4E9012130469047206A401C20626D1EDF
:10030000F6D570BD70B5044685690078C00707D181
:1003100070BDD4E9012120209047206A401C206252
:100320006D1EF6D570BD70B50C460546012A05D088
:100330002878800600D5EA69002302E0012305E061
:100340005B1C934202D2E05C0028F9D1A869E61850
:10035000C01AA861286A184428622846FFF7BCFF23
:1003600004E0D5E9012114F8010B9047B442F8D319
:100370002846FFF7C7FF70BD2DE9F041064600246F
:1003800010687529314616A510D0AFF300800028FB
:1003900002DA404213A507E031688A0701D512A5A9
:1003A00002E0490704D511A5012401E0AFF3008064
:1003B00000210A2206F1240709E0B0FBF2FCB0FBA1
:1003C000F2F302FB1C00303078541846491C002818
:1003D000F3D123462A463046BDE8F04100F0FBB891
:1003E000000000002D0000002B0000002000000095
:1003F00070B504460D4621461068AFF30080218891
:10040000090502D50F4A7A4402E00E4A7A440E32B8
:10041000002104F1240305E000F00F060009965DB9
:100420005E54491C0028F7D120780023000704D52A
:10043000702D02D009B1022311322046BDE8704070
:1004400000F0C9B836AA00002DE9F0474FF0000AC5
:1004500089460446C0F820A02046E1688847002865
:1004600076D0252806D0D4E901219047206A401C87
:100470002062F1E7E168204600258847C4F81CA007
:1004800006460027C4F818A02A2E09D0304607F0E7
:10049000F1FF38B304EB8708303EC8F8186019E064
:1004A00059F8041B204604EB87029161E1688847F4
:1004B000012F064618D1E069002820DA25F0200532
:1004C0001DE0D8F8180000EB800006EB4000303843
:1004D000C8F818002046E1688847064607F0CAFFBA
:1004E0000028EED1012F0AD02E2E08D12046E16837
:1004F00088477F1C0646022F45F02005C4DBA06913
:10050000002803DA404245F00105A061E80701D068
:1005100025F01005B6B1A6F14100192802D8203601
:1005200045F400654A463146204625604D46FFF7B2
:1005300065FE58B1012806D0ED1D25F0070000F139
:10054000080989E704E005F1040985E730468AE7F0
:10055000206ABDE8F08730B505460B462A4613F8F9
:10056000014B12F8010B08B1A042F8D01CB10028D1
:1005700002D06D1CF1E7284630BD10B5431C02E0E7
:1005800010F8011B71B18107FAD14FF0013202C896
:100590008C1A8C4314EAC211F9D0C01A0A0603D08F
:1005A000C01E10BDC01A10BD0A0401D0801E10BDAF
:1005B0000902FCD0401E10BD70477047704770475D
:1005C00010B500F0B9FA006810BD10B5044600F08F
:1005D000B3FA046010BD2DE9F0470D4699469246E6
:1005E000044600F124080168880604D5E06921F07A
:1005F0001001216000E00120A84201DD471B00E05E
:100600000027A1697A1902EB0900081AA061207875
:10061000C00602D42046FFF75FFE002608E0D4E9BA
:1006200001211AF806009047206A401C761C2062BF
:100630004E45F4DB2078C0060AD52046FFF74CFE75
:1006400006E0D4E9012130209047206A401C206256
:10065000381EA7F10107F4DC07E0D4E9012118F8FE
:1006600005009047206A401C2062281EA5F1010564
:10067000F3DC2046FFF746FE2078000602D5022074
:10068000BDE8F0870120FBE770472DE9FF4F0C46DE
:100690001E464FF0FF378BB0D2E90001DDF86080D5
:1006A0000A908A46C1F30A5505B93D46002108461D
:1006B0004FF00000BAF1000F00F4400005DA00EB43
:1006C00080004FF4400101EA50004FEA9059B9F11F
:1006D000010F00DDB9460A9850EA4A000ED044F6F0
:1006E0001050A5F2FF3545432F14B8F1000F1ED06E
:1006F0007542291E1EDDC9F100021CE0B8F1010F90
:100700004FF0000001D0302103E0F24305E0215416
:10071000401CB042FBDB30460022002121540B99E3
:10072000C1F80880C1E900200FB0BDE8F08FBD1B03
:100730006D1CDEE74A4600DA694206A800F086FA38
:1007400006AB93E8070003AB83E8070050460A991D
:1007500000F05EFB8DE80700A0F500501F38009008
:100760000398002D09DD42F21F014A46084403A9FF
:100770000390684600F0BDFD08E0A0F500504A4631
:100780001F3803A90390684600F0C7FD8DE80700F5
:100790000004000C03D04FF0FF30410800E0104689
:1007A000B8F1000F03D00022009215461EE0751E1E
:1007B00005D400F0C5F9303262556D1EF9D5B34647
:1007C0000122084302D000227F1C04E02078302858
:1007D00001D100227F1E002A099786D01DE0112D2D
:1007E00007DA00F0ADF9303262556D1C50EA0102B3
:1007F000F5D1084302D00098C8B10EE00021681E70
:1008000005E0235C625C63542254401E491C814213
:10081000F7DBAB46A81B401E0990002004F80B0034
:100820000B98099AC0F80880C0E9002B7CE71126D4
:100830004FF0000859E72DE9F04F88460446D21DD5
:1008400022F0070191B0D1E90001CDE90A0107F0DA
:10085000BAFA02460B98C00F01D02D2007E020689D
:10086000810701D52B2002E0202101EAC000032AE4
:10087000099001D0072A05DB03464146204600F0D7
:10088000A5F90BE12078800601D5E06900E006209B
:10089000B8F1650F814606D0B8F1660F18D0B8F1EF
:1008A000670F70D131E00020B9F1110F009001DB2A
:1008B000112301E009F101030AAA01A90CA8FFF71D
:1008C000E4FEDDE90C70002609F10105834647E0EE
:1008D00001204B4600904FF000470AAA01A90CA83E
:1008E000FFF7D3FEDDE90DB00C995D46002610B987
:1008F00009F101000D18B9EB050003D4C0F1FF3672
:1009000009F10105A5EB09002BE0B9F1010F01DAAE
:100910004FF001090020B9F1110F0090484601DDA8
:10092000112300E003460AAA01A90CA8FFF7ADFEB7
:10093000DDE90C704D4600268346207800070AD476
:10094000AB4500DA5D4601A8012D04DD411911F81F
:10095000011C302907D04F4502DA17F1040F04DAE1
:10096000012082460FE06D1EEEE7002F02DCED1B3A
:100970003E4403E0781CA84200DD7D1CB81B00F15A
:10098000010A4FF000472078000703D4AA4501DB95
:100990004FF0FF3A0021B7F1004F0DF143088DF8F9
:1009A000431024D002202B23002F01DA7F422D2375
:1009B0000A21021EA0F1010000DC5FB197FBF1FCEF
:1009C00097FBF1F201FB1C7C17460CF1300C08F888
:1009D00001CDEEE7A8F1010003702188090501D5DA
:1009E000452100E06521A0F1010800F8011C0998EB
:1009F0000FA9A1EB0807FF1D00B10120411901EB70
:100A0000EA70A1693844081A401EA0612078C00627
:100A100002D42046FFF760FC099828B1D4E90121EF
:100A20009047206A401C20622078C00622D52046CC
:100A3000FFF752FC1EE0002E04DBB34502DD01A8E7
:100A4000805D00E03020D4E901219047206A401CFD
:100A50002062761CAAF101005FEA000A0AD100F0C8
:100A600067F8C0680168405CD4E901219047206ABA
:100A7000401C2062281EA5F10105DCDC07E0D4E95A
:100A8000012118F8010B9047206A401C2062381E93
:100A9000A7F10107F3DC2046FFF734FC032011B077
:100AA00043E6000001694A1C02610878704700B5FE
:100AB0008FB0CDE901310021059105497944CDE997
:100AC000031011466846FFF7BFFC0FB000BD0000E1
:100AD000E5FFFFFF0A6802F8010B0A60704710B5D6
:100AE000436913B1AFF3008001E0FFF71CFC012064
:100AF00010BD127800F124010A7000224A70012210
:100B0000EDE711684FF0FF32E9E70000074B70B5E1
:100B10000D467B44FFF7CBFF0446284600F004F95E
:100B200010B14FF0FF3070BD204670BD078300004C
:100B30000048704738090020004870471809002015
:100B400030B5B0F10A024FEA900E71F100034EEA9F
:100B5000817EB0EB0E0061EB91014FEA101E4EEA70
:100B6000017E10EB0E0041EB11114FEA102E4EEA00
:100B7000016E10EB0E0041EB11214FEA104E4EEAD0
:100B8000014E10EB0E0041EB1141401841F1000104
:100B90004FEAD00040EA41704FEAD10110EB8005E6
:100BA0004FEA810444EA907444EB01046D1944EB6C
:100BB0000404521BA3414FF0000348BF0A3200D582
:100BC00030BD401C41F1000130BD00002DE9F04175
:100BD0001F46044603260168072A01F4006004DB6F
:100BE00008B116A505E016A503E008B115A500E0BB
:100BF00015A521F010002060A069C01EA0610FB1F2
:100C0000401EA0612046FFF767FB4FB1D4E90121E8
:100C100038469047206A401C2062C01C206206E0D3
:100C2000206AFAE7D4E9012115F8010B9047761EF6
:100C3000F8D22046FFF766FBBDE8F0814E414E003A
:100C40006E616E00494E4600696E66002DE9F04700
:100C5000814616468AB0334878440DC88DE80D00A9
:100C600030487844801C03AC0DC884E80D0041F680
:100C70009B300844372190FBF1F290FBF1F5A5F190
:100C8000800501FB12041B3C02D56442012000E0F8
:100C90000020DFF890A080460027FA44AAF1BE0A9F
:100CA0000DE0E00709D03246684607EB47010AEB42
:100CB000810100F032FB8DE8070064107F1C002CDE
:100CC000EFD1184F7F44AC3F18E0E80714D007EB92
:100CD00004100DF1180A90E80E008AE80E00C068B2
:100CE000F04201D198190890324606A903A800F0F5
:100CF00014FB03AB83E807006D10641C002DE4D1E6
:100D000032466946B8F1000F03A802D000F0F1FAAC
:100D100001E000F002FBC9E90001C9F808200AB0AF
:100D2000BDE8F087C8A30000007B00F0800070479A
:100D300000487047180900207546FFF7F9FFAE46D6
:100D400005006946534620F00700854618B020B5D7
:100D5000FFF78EFABDE820404FF000064FF0000785
:100D60004FF000084FF0000B21F00701AC46ACE853
:100D7000C009ACE8C009ACE8C009ACE8C0098D46C0
:100D800070470446AFF300802046FFF75CFA00008E
:100D90004FF0013C50F8042B51F8043B9A4221D10A
:100DA000A2EB0C03934313EACC1317D150F8042B96
:100DB00051F8043B9A4215D1A2EB0C03934313EA7A
:100DC000CC130BD150F8042B51F8043B9A4209D1B3
:100DD000A2EB0C03934313EACC13DBD04FF00000DB
:100DE000704700BFD01A01BAB1FA81F101F01801C1
:100DF00022FA01F0CB40C1F12001DBB2C0B2C01A2F
:100E00002CFA01F3D11A914311EAC311E6D17047CC
:100E10005FEA400C08BF91F0000F4FEA8C234FEAC5
:100E2000C12243EA51514FEA1C5018BF00F5F0406F
:100E30004FEA300018BF41F000415FEA6C5C00F0FF
:100E40002980BCF1FF3F08BF40F080407047130C81
:100E500006BF12044FF0100C4FF0000C130E04BF2D
:100E600012020CF1080C130F04BF12010CF1040C58
:100E7000930F04BF92000CF1020CD30F04BF520079
:100E80000CF1010C11464FF00002A0F11F00A0EB85
:100E90000C00704711F0004F08BF704731F000415F
:100EA0003FF4D5AF0B0C06BF09044FF0100C4FF008
:100EB000000C0B0E04BF09020CF1080C0B0F04BF51
:100EC00009010CF1040C8B0F04BF89000CF1020C1A
:100ED000CB0F04BF49000CF1010CCCF12003A0EBB7
:100EE0000C0022FA03F302FA0CF241EA030100F1CA
:100EF0000100704720F07F4C80EA030023F07F4719
:100F0000ACEB070303F57C5300F0004003F1FF0353
:100F10002DE980494FEA154B09B44FEA144325EAFD
:100F20000B4E24EA03480FF2042606EB1327490868
:100F30003E785FEA320203FB0667C7F5000707FB4E
:100F400006F64FEA54374FEAD64606F1020607FB8B
:100F5000066CCCF1005C4FEA1C472CEA074C07FBFF
:100F600006F40CFB06F504EB15464FEA961634BF63
:100F700000204FF000404FEAD13706FB07FC4FEA54
:100F80001C4C0CFB0BF7D21B03FB0CF761EB0701AE
:100F90000CFB0EF7B0EB074072EB17420CFB08F7A7
:100FA00034BFA2EB0742B2EB074261EB17414FEAB5
:100FB0000C444FEA910706FB07FC4FEA1C4C0CFB64
:100FC0000BF7B0EBC74072EB573203FB0CF734BFA3
:100FD000A2EBC742B2EBC74261EB57310CFB0EF7F5
:100FE000B0EBC70072EB57720CFB08F734BFA2EBF3
:100FF000C702B2EBC70261EB5771039F4FEA8161F1
:1010000041EA921104EBCC044FEAD1374FEA8262F5
:1010100006FB07FC42EA90124FEA80604FEA1C4C44
:101020000CFB0BF7D21B03FB0CF761EB07010CFB6E
:101030000EF7B0EB074072EB17420CFB08F734BF1A
:10104000A2EB0742B2EB074261EB17414FEA8C5526
:101050004FEA910704EB9C2406FB07FC4FEA1C4C6B
:101060000CFB0BF7B0EBC74072EB573203FB0CF7EE
:1010700034BFA2EBC742B2EBC74261EB57310CFB66
:101080000EF7B0EBC70072EB57720CFB08F734BFDA
:10109000A2EBC702B2EBC70261EB577115EB4C250F
:1010A0004FEA816141EA92114FEA82624FEAD137F9
:1010B00042EA901206FB07FC44F100044FEA80600C
:1010C0004FEA1C4C0CFB0BF7D21B03FB0CF761EB3C
:1010D00007010CFB0EF7B0EB074072EB17420CFB5D
:1010E00008F734BFA2EB0742B2EB074261EB1741AE
:1010F00015EB1C154FEA813141EA92414FEA8232E9
:1011000042EA90424FEA80304FEA0C7644F1000404
:1011100048EA03434EEA0B484FF0000EB2EB080CCE
:1011200071EB030724BF624639464EEB0E0E4FF0BB
:10113000000B0018524149414BEB0B0BB2EB080C72
:1011400071EB03077BF1000B24BF624639464EEB7F
:101150000E0E4FF0000B0018524149414BEB0B0BA8
:10116000B2EB080C71EB03077BF1000B24BF624666
:1011700039464EEB0E0E51EA020718BF46F0010643
:1011800016EB0E7655F1000254F1000103D5BDE8CF
:101190008901BDE80088BDE88901BDE80048B619AD
:1011A000524141EB0101A3F10103704780807F7E32
:1011B0007D7C7B7A797877767675747372717170CD
:1011C0006F6E6E6D6C6C6B6A6A696868676666657F
:1011D0006464636362616160605F5F5E5E5D5D5C0D
:1011E0005C5B5B5A5A59595858575756565555557E
:1011F0005454535352525251515050504F4F4F4EDE
:101200004E4D4D4D4C4C4C4B4B4B4A4A4A4949492B
:10121000484848474747474646464545454444446D
:10122000444343434342424242414141002B26D47E
:10123000770021D01CB54FEA370703B44FF01000F8
:101240004FF010014FF000000FBCBDE810400BF153
:10125000010BBBF1010F08BF5FEA170722BF12F1B4
:10126000010211F101014FF0004143F1000300F0D0
:10127000004043EA00007047F9D35708DAE746EA2E
:10128000064613F1400F4FEA16461FDD13F1200FFB
:10129000DFBF16430A46002120335B42C8D0C3F1AA
:1012A000200746EA064602FA07F74FEA164646EADC
:1012B0000706C3F1200722FA03F201FA07F721FA21
:1012C00003F14FF0000342EA0702B1E746EA0206E3
:1012D00046EA06464FEA164646EA0106BCBF46EA1B
:1012E0000646360C4FF000034FF000024FF00001AD
:1012F0009EE72DE9C048934630B491E8380007C80E
:1013000031EA400C48BF34EA430C03D5FFF7F2FD45
:10131000FFF78CFFF0BCBDE800882DE9C04893467C
:1013200030B491E8380007C810F0804F08BF13F0C0
:10133000804F03D100F005F8FFF778FFF0BCBDE85F
:10134000008820F07F4780EA030023F07F4C07EB02
:101350000C03A3F57C5300F00040A3F1FE0392F0D0
:10136000000F00F0B38095F0000F00F077802DE9BA
:1013700001494FEA11404FEA144621EA004800FBB8
:1013800006FC24EA064708FB06F607FB08F800FB04
:1013900007F718EB06484CEB164C4FEA124B18EBCC
:1013A00007484FEA15464CEB174022EA0B4E0BFB61
:1013B00006FC25EA06470EFB06F607FB0EFE0BFBB6
:1013C00007F71EEB064E4CEB164C4FF000061EEBDB
:1013D000074E4CEB174B18EB0B0840F1000018EBD5
:1013E0000E0B58EB000840F100008F1A4FF000017F
:1013F0003CBFC943661B14BFB5EB040C00213CBFC6
:10140000C943F61B4FEA17444EEA8E0E27EA0445FD
:101410004FEA1C4704FB07622CEA074C05FB07F761
:101420000CFB05F604FB0CFC16EB074642EB1742DF
:1014300016EB0C4642EB1C421BEB060658EB020275
:10144000414146EA9E0601D5BDE80189B6195241DF
:1014500041EB0101A3F10103BDE801894FEA144505
:101460004FEA114724EA054621EA074C05FB07F439
:1014700006FB07F70CFB06F105FB0CFC11EB074123
:1014800044EB17444FEA124711EB0C4144EB1C4468
:1014900022EA074C05FB07F206FB07F70CFB06F6F2
:1014A00005FB0CFC16EB074642EB174216EB0C460D
:1014B00042EB1C456A1854F1000148BF7047B61949
:1014C000524141EB0101A3F10103704795F0000F78
:1014D00037D04FEA11424FEA144721EA024624EA84
:1014E000074C02FB07F106FB07F70CFB06F402FBB7
:1014F0000CFC14EB074441EB17414FEA154714EB82
:101500000C4441EB1C4125EA074C02FB07F506FBA6
:1015100007F70CFB06F602FB0CFC16EB074645EB47
:10152000174516EB0C4645EB1C42121951F1000110
:1015300048BF7047B619524141EB0101A3F10103C5
:1015400070474FEA14454FEA114724EA054621EA5D
:10155000074C05FB07F106FB07F70CFB06F24FF003
:10156000000605FB0CFC12EB074241EB174112EBA6
:101570000C4251EB1C4148BF7047921841EB0101EE
:10158000A3F101037047CA430260704721B182682A
:1015900042F00102826003E0826822F00102826070
:1015A000704700000021084A1168084A1140D0E93C
:1015B00000231A4383681A43C3681A431143044A39
:1015C000C2F804137047000004230140E030FCFF20
:1015D000002001400021016041608160C1607047CE
:1015E0000146C86C80B270470246002013680B4069
:1015F0000BB1012000E000207047000030B502462A
:10160000002000235068104C20400D790C6844EAFB
:1016100005242043506090680C4C2040D1E90354CD
:101620002C438D682C434D7944EA45042043906057
:10163000D06A20F470000C7D641EE4B2234340EABB
:101640000350D06230BD0000FFFEFFFCFDF7FFC07D
:10165000F0B504460D4600200021092D11DDE0689B
:10166000A5F10A0606EB4607072606FA07F18843A6
:10167000A5F10A0606EB460603FA06F10843E06008
:101680000CE0206905EB4507072606FA07F18843B9
:1016900005EB450603FA06F108432061072A0FDA35
:1016A000606B561E06EB86071F2606FA07F1884375
:1016B000561E06EB860605FA06F10843606322E033
:1016C0000D2A0FDA206BD61F06EB86071F2606FAB7
:1016D00007F18843D61F06EB860605FA06F1084394
:1016E000206310E0E06AA2F10D0606EB86071F26D4
:1016F00006FA07F18843A2F10D0606EB860605FA05
:1017000006F10843E062F0BD816841F080418160EC
:10171000704700210160017141718160C160016108
:1017200001210175704700001CB50121022005F060
:101730007FFF012000908DF8040000208DF8060046
:1017400002208DF805008DF807006946024800F078
:1017500041FB00F003F81CBD0004024010B501215C
:10176000034800F0A2FB00200249087010BD0000F1
:10177000000402402A00002000BFFEE710B500244C
:101780001448006820F440201249086008460068A8
:10179000086004E0601CC4B2012006F0AFFE0E48F1
:1017A000006808B1642CF5DB642C01DB012010BD5E
:1017B000002404E0601CC4B2012006F09FFE06482D
:1017C000006808B9642CF5DB642C01DB0120EEE72E
:1017D0000020ECE700180240240243421CB501211E
:1017E000402005F025FF4FF40070009001208DF897
:1017F000040000208DF8060002208DF8050001206D
:101800008DF807006946044800F0E4FA00F068F833
:10181000FFF7B4FF1CBD00000018024010B5002403
:1018200004E0601CC4B2012006F068FE0D480068A8
:1018300008B1642CF5DB002404E0601CC4B2012074
:1018400006F05CFE0748006808B9642CF5DB282028
:1018500006F054FE0348006808B1012010BD0020C6
:10186000FCE700002402434270B50024002506E096
:101870006006040EFFF7D2FF0443681CC5B2082DB2
:10188000F6DB204670BD7CB505460E4600F028F814
:10189000FFF774FFF8B9002405E0FFF7E5FF0DF846
:1018A0000400601CC4B2052CF7DB9DF800009DF815
:1018B000011008449DF8021008449DF803100844E4
:1018C0009DF80410884208D19DF8000030709DF802
:1018D0000200287001E001207CBD0020FCE7000030
:1018E00010B50C48006820F440200A4908600846FA
:1018F000006840F480200860002007490860142038
:1019000006F0E0FD01200549C1F8A4021E2006F002
:10191000F5FD10BD00180240A402434200004342FE
:101920007047000051B18200A2F1C042126842F03B
:1019300001038200A2F1C042136009E08200A2F11B
:10194000C0421268034B1A408300A3F1C0431A60DF
:1019500070470000FEFF0F00D0E901121143C2687A
:101960001143026911434269114382691143C269FB
:101970001143026A1143426A1143826A1143C26AE7
:101980001143026B114302689200A2F1C042116040
:10199000816808290BD101688900A1F1C04109685B
:1019A00041F0400201688900A1F1C0410A60416B29
:1019B0000968426B526841EA0211426B926841EA3F
:1019C0000221426B928941EA0241426B128A41EA4A
:1019D0000251426B127D41EA0261426B92691143EE
:1019E0000268521C9200A2F1C0421160C16AB1F5B6
:1019F000804F1BD1816B0968826B526841EA0211EA
:101A0000826B926841EA0221826B128A41EA02519A
:101A1000826B127D41EA0261826B92691143026816
:101A20009200A2F1C042C2F8041107E06FF07042C8
:101A300001688900A1F1C041C1F80421704700008C
:101A400000B58BB00121022005F0F2FD0121042038
:101A500005F00EFE02220621224800F003FA402083
:101A6000099002208DF8280000208DF82A0003201C
:101A70008DF8290001208DF82B0009A9194800F0E4
:101A8000A9F944F61F6007905320ADF81800002014
:101A9000ADF82000ADF81A0006A9134806F01AF8B0
:101AA0006020ADF804000120ADF806000020ADF87C
:101AB0001000039001A90C4805F0C2FF08210A4854
:101AC00005F0FCFF0121084805F0A2FF01210648AE
:101AD00005F0AAFF44F62061034805F0F8FF0BB0BB
:101AE00000BD0000000402400008004010B544F6AC
:101AF0002061024805F0EBFF10BD00000008004027
:101B000010B5322000F002F810BD000070B5044698
:101B1000642C00DD6424C4F1640044F62061484371
:101B2000642190FBF1F544F62060854200D905461A
:101B300000BF2946014805F0CAFF70BD00080040FB
:101B400010B52DED028BB0EE408A0446207870B9B6
:101B50009FED110AB4EEC08AF1EE10FA07DD012004
:101B60002070FFF7CDFF0DA0FEF796FB10E0207868
:101B700001280DD19FED0F0AB4EEC08AF1EE10FAE4
:101B800006D200202070FFF7B1FF0BA0FEF784FB08
:101B9000BDEC028B10BD00000000964246616E2035
:101BA0004F4E3A20504D322E3520686967680D0A35
:101BB000000000000000204246616E204F46463A79
:101BC00020504D322E35206E6F726D616C0D0A0003
:101BD00010B50723012205210A48FFF739FD02212C
:101BE0000848FFF7D0FC0748FFF78EFD00BF022131
:101BF0000448FFF7F9FC0028F9D00248FFF7F0FC91
:101C000010BD00000020014070B50446002604B954
:101C10000124002504E0FFF7DBFF0644681CC5B281
:101C2000A542F8DBB6FBF4F080B270BD00B58DB014
:101C30000121032005F0FCFC0121080205F028FD2C
:101C400002200B9001208DF8300000208DF832002A
:101C500002208DF8310000208DF833000BA91B48BD
:101C600000F0B8F80221194800F01FF920200B906D
:101C700003208DF8300000208DF833000BA91448A4
:101C800000F0A8F801A8FFF7A5FC002001904FF490
:101C90008030029000200390049001A8FFF782FC9E
:101CA00005A8FFF736FD002005908DF81900099072
:101CB00001208DF8280005A90648FFF79FFC0121A7
:101CC0000448FFF763FC0DB000BD000000040240B3
:101CD000000002400020014070B52DED028B04464B
:101CE0009FED0D0AB0EE408A04B90124002507E0FB
:101CF00000F014F830EE080AB0EE408A681CC5B255
:101D0000A542F5DB00EE104AF8EE400A88EE200A04
:101D1000BDEC028B70BD00000000000010B52DED81
:101D2000028B00F03BF8F0EE408A9FED0B0AF4EED8
:101D3000C08AF1EE10FA08DD9FED070A38EEC00AFE
:101D4000DFED060A20EE208A01E09FED058AB0EE65
:101D5000480ABDEC028B10BD0000A543CDCC4C3E23
:101D60000000000010B502210B4800F0A0F84FF46D
:101D70008C7006F0C3FB0A20FFF746FF04462820BC
:101D800006F0BCFB0221044800F08FF842F2D0506C
:101D900006F0B4FB204610BD0004024010B52DED46
:101DA000028BFFF7DFFF08EE100AB8EE480ADFEDFE
:101DB000070A20EE200A9FED061AC0EE010AB2EED5
:101DC000060A20EE800ABDEC028B10BD00404E4595
:101DD00000008045F0B50A4600210023002400BF22
:101DE0003DE0012505FA01F3156805EA03049C426C
:101DF00034D105684F000326BE40B5430560157910
:101E00004E00B5400668354305601579012D02D0B6
:101E10001579022D16D185684F000326BE40B543C3
:101E2000856055794E00B5408668354385604568C4
:101E300001268E40B5434560456896798E40B6B21E
:101E400035434560C5684F000326BE40B543C560B5
:101E5000D5794E00B540C6683543C560491C102988
:101E6000BFD3F0BDF0B5002300244D07ED0E02FAFC
:101E700005F3CE1000F1200555F826504E07F70E59
:101E80000F26BE40B543CF1000F1200646F827507C
:101E9000CE1000F1200555F8265045EA0304CE1077
:101EA00000F1200545F82640F0BD418370470183CD
:101EB00070470AB1018300E04183704700BFFEE72D
:101EC00070B5044600261A480588408845431848DE
:101ED000808846F60401884205D01548808849F27A
:101EE0008141884216D112488079012812D1002000
:101EF0000F4988712A2048812B20888100210846BB
:101F000004F0D8FD01200A4988712B2048812A203D
:101F1000888103E00021084604F0CCFD05F02CF98F
:101F2000002602E003480480761CAE42FAD370BD5E
:101F3000F40000208000006C10B50446002C7DD118
:101F4000A0498871F02008804FF4A07048800846AE
:101F5000808849F24131884228D09A48808846F6E4
:101F60000401884222D09748808845F21031884287
:101F70001CD09448808849F28141884216D091480B
:101F8000808847F28971884210D08E48808849F253
:101F9000864188420AD08B488088891C884205D0B7
:101FA0008848808847F29671884230D12C20854934
:101FB00008812A2048812B2088810846808846F69F
:101FC000040188421BD07F48808845F21031884246
:101FD00015D07C48808849F2814188420FD07948E9
:101FE0008088491D88420AD076488088891C8842AA
:101FF00005D07448808847F29671884206D14FF424
:10200000A070704908804FF4F0704880D5E06D48AA
:10201000808845F21051884211D14FF430506949FF
:1020200008814FF4285048814FF42C5088814FF498
:10203000F07008804FF448704880BEE01BE06148B3
:10204000808841F6631188420DD12C205D490881BA
:102050002B2048812A2088814FF4F07008804FF4AB
:1020600048704880A9E022205649088120204881F4
:1020700021208881A1E00120524988714FF4A0708D
:102080000880F02048800846808849F24131884223
:102090001CD04C48808845F21031884216D04948FF
:1020A000808847F28971884210D04648808849F27A
:1020B000864188420AD043488088891C884205D0DE
:1020C0004048808847F29671884207D12C203D49CC
:1020D00008812A2048812B20888145E03948808862
:1020E00046F60401884205D03648808849F281418D
:1020F000884207D12C20334908812B2048812A208F
:10210000888131E02F48808845F21051884210D1F3
:102110004FF430502B4908814FF4285048814FF438
:102120002C5088814FF4487008804FF4F07048803C
:102130001AE02448808841F6631188420DD12C2092
:10214000204908812A2048812B2088814FF448703B
:1021500008804FF4F070488006E022201949088179
:1021600021204881202088811648808846F6040175
:1021700088421BD01348808845F21031884215D020
:102180001048808849F2814188420FD00D488088EC
:10219000491D88420AD00B488088891C884205D096
:1021A0000848808847F29671884206D14FF4F07053
:1021B000044908804FF4A0704880002004F0D0FA51
:1021C00010BD0000F400002070B504460D46164610
:1021D0008148808849F24131884211D07E48808808
:1021E00045F2103188420BD07B48808847F28971D4
:1021F000884205D07848808847F29671884214D189
:102200007549488904F0ACFF201204F09DFFE0B24C
:1022100004F09AFF7049888904F0A2FF281204F0A4
:1022200093FFE8B204F090FFCCE06B48808845F261
:102230001051884220D16849488904F091FF20124A
:1022400004F082FF64494989491C88B204F088FF80
:10225000E0B204F079FF6049888904F081FF281218
:1022600004F072FF5C498989491C88B204F078FF48
:10227000E8B204F069FFA5E05748808841F6631191
:10228000884228D15448807920B953480088401E9C
:10229000001B84B25049488904F062FF201204F008
:1022A00053FFE0B204F050FF201204F04DFFE0B203
:1022B00004F04AFF4849888904F052FF281204F0CC
:1022C00043FFE8B204F040FF281204F03DFFE8B2FB
:1022D00004F03AFF76E04048808846F604018842E0
:1022E00005D03D48808849F2814188421DD13A4855
:1022F0008079012804D138480088401E001B84B230
:102300003549488904F02CFF201204F01DFFE0B28B
:1023100004F01AFF3049888904F022FF281204F0E3
:1023200013FFE8B204F010FF4CE02B48808849F21C
:102330008641884204D028488088891C88422ED152
:102340002549488904F00CFF201204F0FDFEE0B29C
:1023500004F0FAFE20490988491EC1F30F2004F059
:10236000F3FE1D490978491EC8B204F0EDFE1A4972
:10237000888904F0F5FE281204F0E6FEE8B204F0C5
:10238000E3FE15494988491EC1F30F2004F0DCFE25
:1023900011498978491EC8B204F0D6FE12E00E48F1
:1023A0008079012804D10C480088401E001B84B2AB
:1023B00009494889214604F0E9FE074988892946E8
:1023C00004F0E4FE04480089044908804FF0D84036
:1023D000A0F8806070BD0000F40000207E00006C5A
:1023E0002DE9FC4F05460E4617469846DDF82C9021
:1023F000002001902A48808846F60401884205D0D2
:102400002748808849F28141884229D1244880792F
:10241000012825D1AB46354621480088C01B401E07
:1024200086B247461E480088A0EB0B00401E1FFAEC
:1024300080F800201A4988712A2048812B20888141
:1024400043463A4631462846CDF80090FFF7C8FF8C
:102450000120134988712B2048812A2088811DE0A2
:10246000781B401C80B20190344615E02146284676
:1024700004F020FB04F080FE4FF0000A07E04FF06C
:10248000D840A0F880900AF101001FFA80FA019864
:102490008245F4DB601C84B24445E7DDBDE8FC8F77
:1024A000F400002000B5A1B00020209001217A2086
:1024B00005F0BEF80121084605F0CAF84FF40040C7
:1024C0001E9001208DF87C0000208DF87E000220F7
:1024D0008DF87D0001208DF87F001EA9FE48FFF7D2
:1024E00079FC4CF233701E9002208DF87C000020A5
:1024F0008DF87E0003208DF87D0001208DF87F008F
:102500001EA9F648FFF766FC4FF680701E90022069
:102510008DF87C0000208DF87E0003208DF87D0072
:1025200001208DF87F001EA9ED48FFF753FC4FF402
:1025300080501E9002208DF87C0000208DF87E00D7
:1025400003208DF87D0001208DF87F001EA9E5484D
:10255000FFF740FC4FF480501E9002208DF87C0065
:1025600000208DF87E0003208DF87D0001208DF87D
:102570007F001EA9DC48FFF72DFC0C220021D74864
:10258000FFF770FC0C220121D448FFF76BFC0C22F2
:102590000421D248FFF766FC0C220521CF48FFF743
:1025A00061FC0C220821CD48FFF75CFC0C220921BC
:1025B000CA48FFF757FC0C220A21C848FFF752FC13
:1025C0000C220E21C548FFF74DFC0C220F21C348F9
:1025D000FFF748FC0C220721C148FFF743FC0C22FF
:1025E0000821BF48FFF73EFC0C220921BC48FFF739
:1025F00039FC0C220A21BA48FFF734FC0C220B21CB
:10260000B748FFF72FFC0C221146B548FFF72AFC0C
:102610000C220D21B248FFF725FC0C220E21B048F8
:10262000FFF720FC0C220F21AD48FFF71BFC0C220A
:102630001146AC48FFF716FC0C221146AA48FFF7DA
:1026400011FC0F200890002009903C200A900020E7
:102650000B900C900D900E9009200190002002909C
:10266000112003900020049005900690079006200A
:102670000F900020109011901020129000201390C5
:1026800015901490169017904FF4805018900020D9
:1026900019904FF480401A9000201B9008A81C90BD
:1026A00001A81D900FA8FFF757F901210620FFF799
:1026B00039F9322005F006FF0121002004F066FD03
:1026C000322005F0FFFE002004F00EF887498880D4
:1026D00008468088FF280ADB084680884FF6FF718D
:1026E000884204D081488088B0F5134F7ED1D32032
:1026F00004F036FD03F0EEFF7C49888003F0EAFF2A
:102700007A49888003F0E6FF784988800846808807
:102710004FF6FF7101EA00207449888003F0DAFF68
:10272000724989880843714988800846808849F23F
:10273000413188425AD06D48808849F286418842AA
:10274000F8D06A488088891C8842F3D0674880881E
:1027500047F296718842EDD0042004F001FD03F0A9
:10276000B9FF6249888003F0B5FF6049888003F0B3
:10277000B1FF5E498880084680884FF6FF7101EA04
:1027800000205A49888003F0A5FF584989880843EA
:10279000564988800846808848F25251884203D1C1
:1027A00047F28970514988805048808847F2897182
:1027B0008842BFD0BF2004F0D3FC03F08BFF4B490D
:1027C000888003F087FF4949888003F083FF4749E9
:1027D000888003F07FFF45498880084680884FF64F
:1027E000FF7101EA00204149888000E080E003F0A9
:1027F00071FF3E49898808433C49888008468088A3
:1028000046F60401884273D03848808849F28141F5
:1028100088426DD0D42004F0A3FC03F05BFF334961
:10282000888003F057FF3149888003F053FF2F4918
:102830008880084680884FF6FF7101EA00202B4906
:10284000888003F047FF2949898808432749888001
:102850000846808845F21031884266D04FF45A40CD
:1028600004F07EFC03F036FF204988804FF45B4083
:1028700004F076FC03F02EFF1C498880084680880F
:102880004FF6FF7101EA0020184988804FF45C4040
:1028900004F066FC03F01EFF1449898808431349BD
:1028A000888008468088B0F5004F02D145F210506C
:1028B00088800E48808845F21051884235D0A1208A
:1028C00004F04EFC03F006FF0849888003F002FF85
:1028D0000649888008460CE000040240000C0240D3
:1028E000001002400014024000180240F4000020D2
:1028F0001BE080884FF6FF7101EA0020FE498880C6
:1029000003F0E8FEFC4989880843FB4988800846B3
:10291000808845F26171884204D141F66310F6491E
:10292000888002E00020F4498880F348808849F2DA
:10293000413188422ED0F048808845F210318842DB
:1029400028D0ED48808845F21051884222D0EA48CC
:10295000808841F6631188421CD0E748808849F29C
:102960008141884216D0E448808847F289718842C4
:1029700010D0E148808849F2864188420AD0DE487A
:102980008088891C884205D0DB48808847F2967190
:1029900088421DD1D948006820F00F004FF0204137
:1029A000C1F81C010846D0F81C0120F47060C1F881
:1029B0001C010846D0F81C0140F00300C1F81C01BE
:1029C0000846D0F81C0140F40070C1F81C0128E052
:1029D000C948808846F60401884205D0C6488088E8
:1029E0004CF2055188421CD1C448006820F00F0009
:1029F0004FF02041C1F81C010846D0F81C0120F41A
:102A00007060C1F81C010846D0F81C0140F00A00B3
:102A1000C1F81C010846D0F81C0140F44060C1F820
:102A20001C01B5488188B6A0FDF736FCB248808805
:102A300049F2413188427CD1CF2004F091FB002043
:102A400004F082FBC12004F07FFB302004F07CFB0B
:102A5000ED2004F085FB642004F076FB032004F0F5
:102A600073FB122004F070FB812004F06DFBE82062
:102A700004F076FB852004F067FB102004F064FB73
:102A80007A2004F061FBCB2004F06AFB392004F0CB
:102A90005BFB2C2004F058FB002004F055FB342095
:102AA00004F052FB022004F04FFBF72004F058FB27
:102AB000202004F049FBEA2004F052FB002004F03F
:102AC00043FB002004F040FBC02004F049FB1B2026
:102AD00004F03AFBC12004F043FB012004F034FB76
:102AE000C52004F03DFB302004F02EFB302004F024
:102AF0002BFBC72004F034FBB72004F025FB362065
:102B000004F02EFB482004F01FFB3A2004F028FBC1
:102B1000552004F019FBB12004F022FB002004F042
:102B200013FB1A2004F010FBB62004F019FB0A2056
:102B300000E099E004F008FBA22004F005FBF2207D
:102B400004F00EFB002004F0FFFA262004F008FB3E
:102B5000012004F0F9FAE02004F002FB0F2004F059
:102B6000F3FA2A2004F0F0FA282004F0EDFA082005
:102B700004F0EAFA0E2004F0E7FA082004F0E4FA80
:102B8000542004F0E1FAA92004F0DEFA432004F016
:102B9000DBFA0A2004F0D8FA0F2004F0D5FA00205E
:102BA00004F0D2FA002004F0CFFA002004F0CCFAAE
:102BB000002004F0C9FAE12004F0D2FA002004F069
:102BC000C3FA152004F0C0FA172004F0BDFA07205C
:102BD00004F0BAFA112004F0B7FA062004F0B4FAAF
:102BE0002B2004F0B1FA562004F0AEFA3C2004F099
:102BF000ABFA052004F0A8FA102004F0A5FA0F2083
:102C000004F0A2FA3F2004F09FFA3F2004F09CFA5F
:102C10000F2004F099FA2B2004F0A2FA002004F00F
:102C200093FA002004F090FA012004F08DFA3F207E
:102C300004F08AFA2A2004F093FA002004F084FABF
:102C4000002004F081FA002004F07EFAEF2004F066
:102C50007BFA112004F084FA782005F033FC292057
:102C600004F07EFA03F026BD2348808846F604016E
:102C700088427DD1112004F073FA142005F022FC63
:102C8000D02004F06DFA072004F05EFA422004F030
:102C90005BFA1D2004F058FAD12004F061FA0020FC
:102CA00004F052FA1A2004F04FFA092004F04CFA0A
:102CB000D22004F055FA012004F046FA222004F054
:102CC00043FAC02004F04CFA102004F03DFA3B20F7
:102CD00004F03AFA002004F037FA022004F034FA43
:102CE000112004F031FAC52004F03AFA032004F070
:102CF0002BFAC8200CE00000F40000201C0100A00A
:102D0000204C43442049443A25780D0A0000000035
:102D100004F026FA002004F017FA252004F014FA33
:102D2000212004F011FA052004F00EFA002004F02E
:102D30000BFA0A2004F008FA652004F005FA2520B1
:102D400004F002FA772004F0FFF9502004F0FCF9B7
:102D50000F2004F0F9F9002004F0F6F9F82004F04F
:102D6000FFF9012004F0F0F9FE2004F0F9F900E089
:102D700039E0002004F0E8F9022004F0E5F9202011
:102D800004F0EEF9362004F0EBF9082004F0DCF949
:102D90003A2004F0E5F9552004F0D6F92B2004F090
:102DA000DFF9002004F0D0F9002004F0CDF9012073
:102DB00004F0CAF93F2004F0C7F92A2004F0D0F942
:102DC000002004F0C1F9002004F0BEF9012004F055
:102DD000BBF9DF2004F0B8F9782005F073FB292057
:102DE00004F0BEF93EE7FE48808847F289718842C8
:102DF0007ED1112004F0B4F9782005F063FB362071
:102E000004F0AEF9002004F09FF93A2004F0A8F98C
:102E1000052004F099F9B22004F0A2F90C2004F086
:102E200093F90C2004F090F9002004F08DF9332080
:102E300004F08AF9332004F087F9B72004F090F900
:102E4000352004F081F9BB2004F08AF9322004F027
:102E50007BF9C02004F084F90C2004F075F9C2203D
:102E600004F07EF9012004F06FF9C32004F078F932
:102E7000102004F069F9C42004F072F9202004F055
:102E800063F9C62004F06CF90F2004F05DF9D0203E
:102E900004F066F9A42004F057F9A12004F054F9D5
:102EA000E02004F05DF9D02004F04EF9002004F099
:102EB0004BF9022004F048F9072004F045F90A20F4
:102EC00004F042F9282004F03FF9322004F03CF9E4
:102ED000442004F039F9422004F036F9062004F0C9
:102EE00033F90E2004F030F9122004F02DF900E03F
:102EF00054E0142004F028F9172004F025F9E1200B
:102F000004F02EF9D02004F01FF9002004F01CF981
:102F1000022004F019F9072004F016F90A2004F041
:102F200013F9282004F010F9312004F00DF9542091
:102F300004F00AF9472004F007F90E2004F004F920
:102F40001C2004F001F9172004F0FEF81B2004F007
:102F5000FBF81E2004F0F8F82A2004F001F9002004
:102F600004F0F2F8002004F0EFF8002004F0ECF890
:102F7000EF2004F0E9F82B2004F0F2F8002004F030
:102F8000E3F8002004F0E0F8012004F0DDF83F2031
:102F900004F0DAF8292004F0E3F863E6904880882A
:102FA00049F2814188427CD1112004F0D9F81420E3
:102FB00005F088FAD02004F0D3F8072004F0C4F814
:102FC000422004F0C1F81C2004F0BEF8D12004F027
:102FD000C7F8002004F0B8F8102004F0B5F810206D
:102FE00004F0B2F8D22004F0BBF8012004F0ACF8F1
:102FF000112004F0A9F8E42004F0B2F8A02004F0B5
:10300000A3F8F32004F0ACF8002004F09DF82A2087
:1030100004F09AF8C02004F0A3F8102004F094F80B
:103020003B2004F091F8002004F08EF8022004F018
:103030008BF8112004F088F8C52004F091F80320E3
:1030400004F082F8C82004F08BF8002004F07CF82B
:10305000352004F079F8232004F076F8072004F0F6
:1030600073F8002004F070F8042004F06DF8452097
:1030700004F06AF8532004F067F8772004F064F84D
:10308000702004F061F8002004F05EF8042004F0E1
:103090005BF8362004F064F80A2004F055F83A2072
:1030A00000E02FE004F05CF8552004F04DF82A20F1
:1030B00004F056F8002004F047F8002004F044F82B
:1030C000012004F041F83F2004F03EF82B2004F0EA
:1030D00047F8002004F038F8002004F035F801200B
:1030E00004F032F8E02004F02FF8782005F0EAF937
:1030F000212004F035F8292004F032F82C2004F0C7
:103100002FF8AFE53648808849F28641884269D178
:10311000F22004F025F8182004F016F8A32004F09B
:1031200013F8122004F010F8022004F00DF8B22079
:1031300004F00AF8122004F007F8FF2004F004F865
:10314000102004F001F8002003F0FEFFF82004F046
:1031500007F8212003F0F8FF042003F0F5FFF92021
:1031600003F0FEFF002003F0EFFF082003F0ECFF68
:10317000362003F0F5FF082003F0E6FF3A2003F0C5
:10318000EFFF052003F0E0FFB42003F0E9FF01208A
:1031900003F0DAFFB62003F0E3FF022003F0D4FFD0
:1031A000222003F0D1FFC12003F0DAFF412003F019
:1031B000CBFFC52003F0D4FF002003F0C5FF07209C
:1031C00003F0C2FFE02003F0CBFF0F2003F0BCFFB1
:1031D0001F2003F0B9FF1C2003F0B6FF0C2002E013
:1031E000F40000205CE003F0AFFF0F2003F0ACFF21
:1031F000082003F0A9FF482003F0A6FF982003F061
:10320000A3FF372003F0A0FF0A2003F09DFF132047
:1032100003F09AFF042003F097FF112003F094FFBE
:103220000D2003F091FF002003F08EFFE12003F05A
:1032300097FF0F2003F088FF322003F085FF2E2038
:1032400003F082FF0B2003F07FFF0D2003F07CFFD3
:10325000052003F079FF472003F076FF752003F087
:1032600073FF372003F070FF062003F06DFF10207E
:1032700003F06AFF032003F067FF242003F064FFDC
:10328000202003F061FF002003F05EFF112003F017
:1032900067FF782005F016F9292003F061FFE1E4CB
:1032A000FE48808849F2884188427CD1E02003F0C2
:1032B00057FF002003F048FF1B2003F045FF1F20AD
:1032C00003F042FF0A2003F03FFF0F2003F03CFF12
:1032D000072003F039FF3C2003F036FF382003F0CD
:1032E00033FF492003F030FF002003F02DFF0C20B6
:1032F00003F02AFF0B2003F027FF152003F024FF23
:10330000172003F021FF0F2003F01EFFE12003F040
:1033100027FF002003F018FF192003F015FF1B20E2
:1033200003F012FF042003F00FFF0F2003F00CFF47
:10333000042003F009FF302003F006FF322003F0E1
:1033400003FF402003F000FF012003F0FDFE0720F3
:1033500003F0FAFE0E2003F0F7FE2B2003F0F4FE3C
:10336000322003F0F1FE0F2003F0EEFEF82003F010
:10337000F7FE212003F0E8FE042003F0E5FEF9202B
:1033800003F0EEFE002003F0DFFE082003F0DCFE79
:10339000362003F0E5FE082003F0D6FE3A2003F0C5
:1033A000DFFE052000E029E003F0CEFEB42003F0AC
:1033B000D7FE012003F0C8FEB62003F0D1FE0220A4
:1033C00003F0C2FE222003F0BFFEC12003F0C8FEBE
:1033D000412003F0B9FEC52003F0C2FE002003F037
:1033E000B3FE072003F0B0FE112003F0B9FE7820F1
:1033F00005F068F8292003F0B3FE33E4A74880887D
:1034000047F2967188427CD1112003F0A9FE782002
:1034100005F058F8362003F0A3FE482003F094FE90
:103420003A2003F09DFE552003F08EFEF02003F0BD
:1034300097FEC32003F088FEF02003F091FE962053
:1034400003F082FEB42003F08BFE012003F07CFE2B
:10345000B62003F085FE0A2003F076FEA22003F0DA
:1034600073FEB72003F07CFEC62003F06DFEB9208A
:1034700003F076FE022003F067FEE02003F064FE16
:10348000C02003F06DFE802003F05EFE162003F0E6
:103490005BFEC12003F064FE192003F055FEC2203C
:1034A00003F05EFEA72003F04FFEC52003F058FE98
:1034B000162003F049FEE82003F052FE402003F0FE
:1034C00043FE8A2003F040FE002003F03DFE002072
:1034D00003F03AFE292003F037FE192003F034FEF2
:1034E000A52003F031FE332003F02EFEE02003F090
:1034F00037FEF02003F028FE072003F025FE0D2004
:1035000000E065E003F020FE042003F01DFE05202E
:1035100003F01AFE142003F017FE362003F014FE09
:10352000542003F011FE4C2003F00EFE382003F06F
:103530000BFE132003F008FE142003F005FE2E20DE
:1035400003F002FE342003F0FFFDE12003F008FE4B
:10355000F02003F0F9FD102003F0F6FD142003F035
:10356000F3FD0E2003F0F0FD0C2003F0EDFD08202C
:1035700003F0EAFD352003F0E7FD442003F0E4FD0D
:103580004C2003F0E1FD262003F0DEFD102003F0C7
:10359000DBFD122003F0D8FD2C2003F0D5FD3220F6
:1035A00003F0D2FDF02003F0DBFD3C2003F0CCFD66
:1035B000F02003F0D5FD692003F0C6FD782004F06B
:1035C00081FF212003F0CCFD292003F0C9FD09E48F
:1035D0003248808845F21031884240F07C87ED20E7
:1035E00003F0BEFD012003F0AFFDFE2003F0ACFDB3
:1035F000EE2003F0B5FDDE2003F0A6FD212003F050
:10360000A3FDF12003F0ACFD012003F09DFDDF20C0
:1036100003F0A6FD102003F097FDC42003F0A0FDE9
:103620008F2003F091FDC62003F09AFD002003F0E7
:103630008BFDE22003F088FDE22003F085FDE2200F
:1036400003F082FDBF2003F08BFDAA2003F07CFD78
:10365000B02003F085FD0D2003F076FD002003F07F
:1036600073FD0D2003F070FD002003F06DFD1120AF
:1036700003F06AFD002003F067FD192003F064FDEC
:10368000002003F061FD212003F05EFD002003F027
:103690005BFD2D2003F058FD002001E0F400002028
:1036A00003F052FD3D2003F04FFD002003F04CFDE0
:1036B0005D2003F049FD002003F046FD5D2003F08E
:1036C00043FD002003F040FDB12003F049FD8020C0
:1036D00003F03AFD002003F037FD8B2003F034FDAA
:1036E000002003F031FD962003F02EFD002003F0B2
:1036F0002BFDB22003F034FD002003F025FD002057
:1037000003F022FD022003F01FFD002003F01CFD4A
:10371000032003F019FD002003F016FDB32003F091
:103720001FFD002003F010FD002003F00DFD002020
:1037300003F00AFD002003F007FD002003F004FD64
:10374000002003F001FD002003F0FEFC002003F048
:10375000FBFC002003F0F8FC002003F0F5FC002047
:1037600003F0F2FC002003F0EFFC002003F0ECFC7F
:10377000002003F0E9FC002003F0E6FC002003F049
:10378000E3FC002003F0E0FC002003F0DDFC00205F
:1037900003F0DAFC002003F0D7FC002003F0D4FC97
:1037A000002003F0D1FC002003F0CEFC002003F049
:1037B000CBFCB42003F0D4FC8B2003F0C5FC00202C
:1037C00003F0C2FC962003F0BFFC002003F0BCFC19
:1037D000A12003F0B9FC002003F0B6FCB52003F0F3
:1037E000BFFC022003F0B0FC002003F0ADFC03207E
:1037F00003F0AAFC002003F0A7FC042003F0A4FCC3
:10380000002003F0A1FCB62003F0AAFC002003F086
:103810009BFC002003F098FCB72003F0A1FC0020E3
:1038200003F092FC002003F08FFC3F2003F08CFC9F
:10383000002003F089FC5E2003F086FC002003F0EA
:1038400083FC642003F080FC002003F07DFC8C20CE
:1038500003F07AFC002003F077FCAC2003F074FC4A
:10386000002003F071FCDC2003F06EFC002003F06C
:103870006BFC702003F068FC002003F065FC9020D6
:1038800003F062FC002003F05FFCEB2003F05CFC23
:10389000002003F059FCDC2003F056FC002003F06C
:1038A00053FCB82003F05CFC002003F04DFC00202A
:1038B00003F04AFC002003F047FC002003F044FC26
:1038C000002003F041FC002003F03EFC002003F048
:1038D0003BFC002003F038FCBA2003F041FC24201C
:1038E00003F032FC002003F02FFC002003F02CFC3E
:1038F000002003F029FCC12003F032FC202003F05B
:1039000023FC002003F020FC542003F01DFC0020C9
:1039100003F01AFCFF2003F017FC002003F014FC56
:10392000C22003F01DFC0A2003F00EFC002003F06F
:103930000BFC042003F008FC002003F005FCC3206E
:1039400003F00EFC3C2003F0FFFB002003F0FCFB27
:103950003A2003F0F9FB002003F0F6FB392003F0D6
:10396000F3FB002003F0F0FB372003F0EDFB002019
:1039700003F0EAFB3C2003F0E7FB002003F0E4FB4C
:10398000362003F0E1FB002003F0DEFB322003F0E1
:10399000DBFB002003F0D8FB2F2003F0D5FB002039
:1039A00003F0D2FB2C2003F0CFFB002003F0CCFB74
:1039B000292003F0C9FB002003F0C6FB262003F0FA
:1039C000C3FB002003F0C0FB242003F0BDFB00205C
:1039D00003F0BAFB242003F0B7FB002003F0B4FB94
:1039E000232003F0B1FB002003F0AEFB3C2003F0EA
:1039F000ABFB002003F0A8FB362003F0A5FB002062
:103A000003F0A2FB322003F09FFB002003F09CFB9D
:103A10002F2003F099FB002003F096FB2C2003F0ED
:103A200093FB002003F090FB292003F08DFB002086
:103A300003F08AFB262003F087FB002003F084FBC1
:103A4000242003F081FB002003F07EFB242003F000
:103A50007BFB002003F078FB232003F075FB0020A4
:103A600003F072FBC42003F07BFB622003F06CFBCD
:103A7000002003F069FB052003F066FB002003F043
:103A800063FB842003F060FB002003F05DFBF0206B
:103A900003F05AFB002003F057FB182003F054FBFF
:103AA000002003F051FBA42003F04EFB002003F0A4
:103AB0004BFB182003F048FB002003F045FB50208F
:103AC00003F042FB002003F03FFB0C2003F03CFB23
:103AD000002003F039FB172003F036FB002003F031
:103AE00033FB952003F030FB002003F02DFBF32087
:103AF00003F02AFB002003F027FBE62003F024FB61
:103B0000002003F021FBC52003F02AFB322003F044
:103B10001BFB002003F018FB442003F015FB0020E2
:103B200003F012FB652003F00FFB002003F00CFBF9
:103B3000762003F009FB002003F006FB882003F049
:103B400003FB002003F000FBC62003F009FB20204C
:103B500003F0FAFA002003F0F7FA172003F0F4FA62
:103B6000002003F0F1FA012003F0EEFA002003F048
:103B7000EBFAC72003F0F4FA002003F0E5FA002086
:103B800003F0E2FA002003F0DFFA002003F0DCFA91
:103B9000C82003F0E5FA002003F0D6FA002003F075
:103BA000D3FA002003F0D0FA002003F0CDFAC920A8
:103BB00003F0D6FA002003F0C7FA002003F0C4FA9D
:103BC000002003F0C1FA002003F0BEFA002003F049
:103BD000BBFA002003F0B8FA002003F0B5FA002089
:103BE00003F0B2FA002003F0AFFA002003F0ACFAC1
:103BF000002003F0A9FA002003F0A6FA002003F049
:103C0000A3FA002003F0A0FA002003F09DFA0020A0
:103C100003F09AFAE02003F0A3FA162003F094FAD6
:103C2000002003F091FA1C2003F08EFA002003F02C
:103C30008BFA212003F088FA002003F085FA362061
:103C400003F082FA002003F07FFA462003F07CFAAA
:103C5000002003F079FA522003F076FA002003F0F6
:103C600073FA642003F070FA002003F06DFA7A20F2
:103C700003F06AFA002003F067FA8B2003F064FA7D
:103C8000002003F061FA992003F05EFA002003F0AF
:103C90005BFAA82003F058FA002003F055FAB92087
:103CA00003F052FA002003F04FFAC42003F04CFA5C
:103CB000002003F049FACA2003F046FA002003F07E
:103CC00043FAD22003F040FA002003F03DFAD92055
:103CD00003F03AFA002003F037FAE02003F034FA58
:103CE000002003F031FAF32003F02EFA002003F055
:103CF0002BFAE12003F034FA162003F025FA002015
:103D000003F022FA1C2003F01FFA002003F01CFA33
:103D1000222003F019FA002003F016FA362003F0EF
:103D200013FA002003F010FA452003F00DFA0020EA
:103D300003F00AFA522003F007FA002003F004FA15
:103D4000642003F001FA002003F0FEF97A2003F06A
:103D5000FBF9002003F0F8F98B2003F0F5F90020BF
:103D600003F0F2F9992003F0EFF9002003F0ECF9E9
:103D7000A82003F0E9F9002003F0E6F9B92003F0E8
:103D8000E3F9002003F0E0F9C42003F0DDF900209E
:103D900003F0DAF9CA2003F0D7F9002003F0D4F9D0
:103DA000D22003F0D1F9002003F0CEF9D82003F09F
:103DB000CBF9002003F0C8F9E02003F0C5F900209A
:103DC00003F0C2F9F32003F0BFF9002003F0BCF9BF
:103DD000E22003F0C5F9052003F0B6F9002003F056
:103DE000B3F90B2003F0B0F9002003F0ADF91B206C
:103DF00003F0AAF9002003F0A7F9342003F0A4F996
:103E0000002003F0A1F9442003F09EF9002003F004
:103E10009BF94F2003F098F9002003F095F96120F9
:103E200003F092F9002003F08FF9792003F08CF968
:103E3000002003F089F9882003F086F9002003F0C0
:103E400083F9972003F080F9002003F07DF9A62084
:103E500003F07AF9002003F077F9B72003F074F942
:103E6000002003F071F9C22003F06EF9002003F086
:103E70006BF9C72003F068F9002003F065F9D12041
:103E800003F062F9002003F05FF9D62003F05CF93B
:103E9000002003F059F9DD2003F056F9002003F06B
:103EA00053F9F32003F050F9002003F04DF9E3201B
:103EB00003F056F9052003F047F9002003F044F918
:103EC0000A2003F041F9002003F03EF91C2003F022
:103ED0003BF9002003F038F9332003F035F90020D6
:103EE00003F032F9442003F02FF9002003F02CF9FD
:103EF000502003F029F9002003F026F9622003F096
:103F000023F9002003F020F9782003F01DF90020A8
:103F100003F01AF9882003F017F9002003F014F9D0
:103F2000972003F011F9002003F00EF9A62003F00A
:103F30000BF9002003F008F9B72003F005F9002081
:103F400003F002F9C22003F0FFF8002003F0FCF8B0
:103F5000C72003F0F9F8002003F0F6F8D12003F0B1
:103F6000F3F8002003F0F0F8D52003F0EDF800207E
:103F700003F0EAF8DD2003F0E7F8002003F0E4F8AE
:103F8000F32003F0E1F8002003F0DEF8E42003F072
:103F9000E7F8012003F0D8F8002003F0D5F801205D
:103FA00003F0D2F8002003F0CFF8022003F0CCF8A1
:103FB000002003F0C9F82A2003F0C6F8002003F01F
:103FC000C3F83C2003F0C0F8002003F0BDF84B20FC
:103FD00003F0BAF8002003F0B7F85D2003F0B4F85E
:103FE000002003F0B1F8742003F0AEF8002003F0D5
:103FF000ABF8842003F0A8F8002003F0A5F8932084
:1040000003F0A2F8002003F09FF8A22003F09CF830
:10401000002003F099F8B32003F096F8002003F095
:1040200093F8BE2003F090F8002003F08DF8C42030
:1040300003F08AF8002003F087F8CD2003F084F81D
:10404000002003F081F8D32003F07EF8002003F075
:104050007BF8DD2003F078F8002003F075F8F320FA
:1040600003F072F8002003F06FF8E52003F078F811
:10407000002003F069F8002003F066F8002003F048
:1040800063F8002003F060F8022003F05DF80020E0
:1040900003F05AF8292003F057F8002003F054F8F1
:1040A0003C2003F051F8002003F04EF84B2003F0C1
:1040B0004BF8002003F048F85D2003F045F800209D
:1040C00003F042F8742003F03FF8002003F03CF8BE
:1040D000842003F039F8002003F036F8932003F031
:1040E00033F8002003F030F8A22003F02DF8002070
:1040F00003F02AF8B32003F027F8002003F024F897
:10410000BE2003F021F8002003F01EF8C42003F0C5
:104110001BF8002003F018F8CD2003F015F800205C
:1041200003F012F8D32003F00FF8002003F00CF88E
:10413000DC2003F009F8002003F006F8F32003F078
:1041400003F8002003F000F8E62003F009F811203E
:1041500002F0FAFF002002F0F7FF342002F0F4FF33
:10416000002002F0F1FF562002F0EEFF002002F0E6
:10417000EBFF762002F0E8FF002002F0E5FF772059
:1041800002F0E2FF002002F0DFFF662002F0DCFF19
:10419000002002F0D9FF882002F0D6FF002002F0B4
:1041A000D3FF992002F0D0FF002002F0CDFFBB200A
:1041B00002F0CAFF002002F0C7FF992002F0C4FFFE
:1041C000002002F0C1FF662002F0BEFF002002F0D6
:1041D000BBFF552002F0B8FF002002F0B5FF5520CC
:1041E00002F0B2FF002002F0AFFF452002F0ACFF6A
:1041F000002002F0A9FF432002F0A6FF002002F0F9
:10420000A3FF442002F0A0FF002002F09DFFE72062
:1042100002F0A6FF322002F097FF002002F094FF88
:10422000552002F091FF002002F08EFF762002F070
:104230008BFF002002F088FF662002F085FF00203F
:1042400002F082FF672002F07FFF002002F07CFF77
:10425000672002F079FF002002F076FF872002F04D
:1042600073FF002002F070FF992002F06DFF002024
:1042700002F06AFFBB2002F067FF002002F064FF3B
:10428000992002F061FF002002F05EFF772002F02B
:104290005BFF002002F058FF442002F055FF002091
:1042A00002F052FF562002F04FFF002002F04CFFB8
:1042B000232002F049FF002002F046FF332002F0E5
:1042C00043FF002002F040FF452002F03DFF0020A8
:1042D00002F03AFFE82002F043FF002002F034FF32
:1042E000002002F031FF992002F02EFF002002F0A2
:1042F0002BFF872002F028FF002002F025FF8820F6
:1043000002F022FF002002F01FFF772002F01CFFC6
:10431000002002F019FF662002F016FF002002F0D4
:1043200013FF882002F010FF002002F00DFFAA20EA
:1043300002F00AFF002002F007FFBB2002F004FF9A
:10434000002002F001FF992002F0FEFE002002F0A2
:10435000FBFE662002F0F8FE002002F0F5FE55207C
:1043600002F0F2FE002002F0EFFE552002F0ECFE1B
:10437000002002F0E9FE442002F0E6FE002002F0F8
:10438000E3FE442002F0E0FE002002F0DDFE5520B6
:1043900002F0DAFE002002F0D7FEE92002F0E0FE93
:1043A000AA2002F0D1FE002002F0CEFE002002F092
:1043B000CBFE002002F0C8FE002002F0D1FEAA20B1
:1043C00002F0C2FECF2002F0CBFE002002F0BCFEC5
:1043D000002002F0B9FE002002F0B6FE002002F03C
:1043E000B3FE002002F0B0FE002002F0ADFE00207F
:1043F00002F0AAFE002002F0A7FE002002F0A4FEB8
:10440000002002F0A1FE002002F09EFE002002F03B
:104410009BFE002002F098FE002002F095FE002096
:1044200002F092FE002002F08FFE002002F08CFECF
:10443000F02002F095FE002002F086FE502002F0EF
:1044400083FE002002F080FE002002F07DFE0020AE
:1044500002F07AFEF32002F083FE002002F074FEE8
:10446000F92002F07DFE062002F06EFE102002F020
:104470006BFE292002F068FE002002F065FE3A2063
:1044800002F06EFE552002F05FFE112002F068FE81
:10449000642004F017F8292002F062FE352002F0B3
:1044A0005FFE002002F050FE512002F059FEFF2076
:1044B00002F04AFE532002F053FE2C2002F044FE8C
:1044C000552002F04DFE822002F03EFE2C2002F02C
:1044D00047FE02F0EFB8FE48808845F2105188424E
:1044E0007ED155214FF4704002F050FEAA214FF2C8
:1044F000010002F04BFE52214FF2020002F046FE94
:1045000008214FF2030002F041FE01214FF20400A6
:1045100002F03CFE0D214FF4304002F037FE0D2139
:104520004BF2010002F032FE0D214BF2020002F0CC
:104530002DFE34214FF4364002F028FE34214BF298
:10454000016002F023FE34214BF2026002F01EFEF5
:104550000D214FF4314002F019FE0D214BF20110F4
:1045600002F014FE0D214BF2021002F00FFE342176
:104570004FF4374002F00AFE34214BF2017002F092
:1045800005FE34214BF2027002F000FE00214FF4D0
:10459000324002F0FBFD00214BF2012002F0F6FD5B
:1045A00000214BF2022002F0F1FD24214FF43840AB
:1045B00002F0ECFD24214BF6010002F0E7FD24217E
:1045C0004BF6020002F0E2FD01214FF43F4002F001
:1045D000DDFD0F214FF4334002F0D8FD0F2100E044
:1045E000FEE34BF2013002F0D1FD0F214BF202301D
:1045F00002F0CCFD34214FF4394002F0C7FD3421E4
:104600004BF6011002F0C2FD34214BF6021002F00D
:10461000BDFD08214FF4354002F0B8FD08214BF2F2
:10462000015002F0B3FD08214BF2025002F0AEFD42
:1046300003214FF4424002F0A9FD24214FF43A40F7
:1046400002F0A4FD24214BF6012002F09FFD24215D
:104650004BF6022002F09AFD00214FF43C4002F09C
:1046600095FD78214BF6014002F090FD00214BF6BC
:10467000024002F08BFD00214FF43D4002F086FD28
:1046800078214BF6015002F081FD00214BF60250DB
:1046900002F07CFD00214FF43E4002F077FD6421E2
:1046A0004BF6016002F072FD00214FF4514002F020
:1046B0006DFD33214DF2011002F068FD00214DF235
:1046C000021002F063FD34214DF2031002F05EFD92
:1046D00000214DF2041002F059FD3A214DF205106F
:1046E00002F054FD00214DF2061002F04FFD4A2168
:1046F0004DF2071002F04AFD00214DF2081002F0C1
:1047000045FD5C214DF2091002F040FD00214DF203
:104710000A1002F03BFD81214DF20B1002F036FD34
:1047200000214DF20C1002F031FDA6214DF20D10CA
:1047300002F02CFD00214DF20E1002F027FDE521C4
:104740004DF20F1002F022FD01214DF2101002F087
:104750001DFD13214DF2111002F018FD01214DF243
:10476000121002F013FD54214DF2131002F00EFD51
:1047700001214DF2141002F009FD82214DF21510B5
:1047800002F004FD01214DF2161002F0FFFCCA21D7
:104790004DF2171002F0FAFC02214DF2181002F04F
:1047A000F5FC00214DF2191002F0F0FC02214DF24F
:1047B0001A1002F0EBFC01214DF21B1002F0E6FC96
:1047C00002214DF21C1002F0E1FC34214DF21D10CB
:1047D00002F0DCFC02214DF21E1002F0D7FC672132
:1047E0004DF21F1002F0D2FC02214DF2201002F017
:1047F000CDFC84214DF2211002F0C8FC02214DF2C3
:10480000221002F0C3FCA4214DF2231002F0BEFCE2
:1048100002214DF2241002F0B9FCB7214DF225100F
:1048200002F0B4FC02214DF2261002F0AFFCCF21C1
:104830004DF2271002F0AAFC02214DF2281002F0DE
:10484000A5FCDE214DF2291002F0A0FC02214DF260
:104850002A1002F09BFCF2214DF22B1002F096FC84
:1048600002214DF22C1002F091FCFE214DF22D1090
:1048700002F08CFC03214DF22E1002F087FC102177
:104880004DF22F1002F082FC03214DF2301002F0A5
:104890007DFC33214DF2311002F078FC03214DF202
:1048A000321002F073FC6D214DF2331002F06EFCF9
:1048B00000214FF4524002F069FC33214DF20120F7
:1048C00002F064FC00214DF2022002F05FFC01E0E6
:1048D000F400002034214DF2032002F057FC0021A7
:1048E0004DF2042002F052FC3A214DF2052002F074
:1048F0004DFC00214DF2062002F048FC4A214DF209
:10490000072002F043FC00214DF2082002F03EFC9B
:104910005C214DF2092002F039FC00214DF20A2001
:1049200002F034FC81214DF20B2002F02FFC00211B
:104930004DF20C2002F02AFCA6214DF20D2002F0CF
:1049400025FC00214DF20E2002F020FCE5214DF265
:104950000F2002F01BFC01214DF2102002F016FC8A
:1049600013214DF2112002F011FC01214DF2122011
:1049700002F00CFC54214DF2132002F007FC01213F
:104980004DF2142002F002FC82214DF2152002F0BB
:10499000FDFB01214DF2162002F0F8FBCA214DF279
:1049A000172002F0F3FB02214DF2182002F0EEFB7B
:1049B00000214DF2192002F0E9FB02214DF21A20EC
:1049C00002F0E4FB01214DF21B2002F0DFFB02218B
:1049D0004DF21C2002F0DAFB34214DF21D2002F0D2
:1049E000D5FB02214DF21E2002F0D0FB67214DF2D3
:1049F0001F2002F0CBFB02214DF2202002F0C6FB6B
:104A000084214DF2212002F0C1FB02214DF222202F
:104A100002F0BCFBA4214DF2232002F0B7FB0221DF
:104A20004DF2242002F0B2FBB7214DF2252002F016
:104A3000ADFB02214DF2262002F0A8FBCF214DF262
:104A4000272002F0A3FB02214DF2282002F09EFB5A
:104A5000DE214DF2292002F099FB02214DF22A209D
:104A600002F094FBF2214DF22B2002F08FFB022189
:104A70004DF22C2002F08AFBFE214DF22D2002F097
:104A800085FB03214DF22E2002F080FB10214DF218
:104A90002F2002F07BFB03214DF2302002F076FB49
:104AA00033214DF2312002F071FB03214DF232200F
:104AB00002F06CFB6D214DF2332002F067FB002108
:104AC0004FF4534002F062FB33214DF2013002F00B
:104AD0005DFB00214DF2023002F058FB34214DF213
:104AE000033002F053FB00214DF2043002F04EFB84
:104AF0003A214DF2053002F049FB00214DF206301B
:104B000002F044FB4A214DF2073002F03FFB002146
:104B10004DF2083002F03AFB5C214DF2093002F010
:104B200035FB00214DF20A3002F030FB81214DF2BD
:104B30000B3002F02BFB00214DF20C3002F026FB73
:104B4000A6214DF20D3002F021FB00214DF20E3076
:104B500002F01CFBE5214DF20F3002F017FB0121A2
:104B60004DF2103002F012FB13214DF2113002F021
:104B70000DFB01214DF2123002F008FB54214DF2E1
:104B8000133002F003FB01214DF2143002F0FEFA63
:104B900082214DF2153002F0F9FA01214DF2163062
:104BA00002F0F4FACA214DF2173002F0EFFA0221B6
:104BB0004DF2183002F0EAFA00214DF2193002F0FD
:104BC000E5FA02214DF21A3002F0E0FA01214DF22D
:104BD0001B3002F0DBFA02214DF21C3002F0D6FA53
:104BE00034214DF21D3002F0D1FA02214DF21E3077
:104BF00002F0CCFA67214DF21F3002F0C7FA022111
:104C00004DF2203002F0C2FA84214DF2213002F040
:104C1000BDFA02214DF2223002F0B8FAA4214DF281
:104C2000233002F0B3FA02214DF2243002F0AEFA42
:104C3000B7214DF2253002F0A9FA02214DF22630BB
:104C400002F0A4FACF214DF2273002F09FFA0221A0
:104C50004DF2283002F09AFADE214DF2293002F0AE
:104C600095FA02214DF22A3002F090FAF2214DF22B
:104C70002B3002F08BFA02214DF22C3002F086FA32
:104C8000FE214DF22D3002F081FA03214DF22E303B
:104C900002F07CFA10214DF22F3002F077FA032156
:104CA0004DF2303002F072FA33214DF2313002F021
:104CB0006DFA03214DF2323002F068FA6D214DF2A7
:104CC000333002F063FA00214FF4544002F05EFAF0
:104CD00033214DF2014002F059FA00214DF2024019
:104CE00002F054FA34214DF2034002F04FFA002151
:104CF0004DF2044002F04AFA3A214DF2054002F02A
:104D000045FA00214DF2064002F040FA4A214DF2E8
:104D1000074002F03BFA00214DF2084002F036FA5B
:104D20005C214DF2094002F031FA00214DF20A40B7
:104D300002F02CFA81214DF20B4002F027FA0021FB
:104D40004DF20C4002F022FAA6214DF20D4002F085
:104D50001DFA00214DF20E4002F018FAE5214DF245
:104D60000F4002F013FA01214DF2104002F00EFA4A
:104D700013214DF2114002F009FA01214DF21240C7
:104D800002F004FA54214DF2134002F0FFF9012120
:104D90004DF2144002F0FAF982214DF2154002F072
:104DA000F5F901214DF2164002F0F0F9CA214DF259
:104DB000174002F0EBF902214DF2184002F0E6F93B
:104DC00000214DF2194002F0E1F902214DF21A40A2
:104DD00002F0DCF901214DF21B4002F0D7F900E0AE
:104DE00004E302214DF21C4002F0D0F934214DF2CF
:104DF0001D4002F0CBF902214DF21E4002F0C6F92F
:104E000067214DF21F4002F0C1F902214DF220400E
:104E100002F0BCF984214DF2214002F0B7F90221E1
:104E20004DF2224002F0B2F9A4214DF2234002F0EB
:104E3000ADF902214DF2244002F0A8F9B7214DF25C
:104E4000254002F0A3F902214DF2264002F09EF91E
:104E5000CF214DF2274002F099F902214DF228406E
:104E600002F094F9DE214DF2294002F08FF902217F
:104E70004DF22A4002F08AF9F2214DF22B4002F065
:104E800085F902214DF22C4002F080F9FE214DF20D
:104E90002D4002F07BF903214DF22E4002F076F90D
:104EA00010214DF22F4002F071F903214DF23040F4
:104EB00002F06CF933214DF2314002F067F9032121
:104EC0004DF2324002F062F96D214DF2334002F0B2
:104ED0005DF900214FF4554002F058F933214DF2AD
:104EE000015002F053F900214DF2025002F04EF948
:104EF00034214DF2035002F049F900214DF20450E3
:104F000002F044F93A214DF2055002F03FF9002138
:104F10004DF2065002F03AF94A214DF2075002F0E4
:104F200035F900214DF2085002F030F95C214DF2C4
:104F3000095002F02BF900214DF20A5002F026F937
:104F400081214DF20B5002F021F900214DF20C505D
:104F500002F01CF9A6214DF20D5002F017F90021C4
:104F60004DF20E5002F012F9E5214DF20F5002F011
:104F70000DF901214DF2105002F008F913214DF204
:104F8000115002F003F901214DF2125002F0FEF827
:104F900054214DF2135002F0F9F801214DF2145052
:104FA00002F0F4F882214DF2155002F0EFF80121E1
:104FB0004DF2165002F0EAF8CA214DF2175002F0F5
:104FC000E5F802214DF2185002F0E0F800214DF210
:104FD000195002F0DBF802214DF21A5002F0D6F817
:104FE00001214DF21B5002F0D1F802214DF21C506C
:104FF00002F0CCF834214DF21D5002F0C7F8022126
:105000004DF21E5002F0C2F867214DF21F5002F01F
:10501000BDF802214DF2205002F0B8F884214DF283
:10502000215002F0B3F802214DF2225002F0AEF806
:10503000A4214DF2235002F0A9F802214DF2245090
:1050400002F0A4F8B7214DF2255002F09FF802219A
:105050004DF2265002F09AF8CF214DF2275002F07F
:1050600095F802214DF2285002F090F8DE214DF221
:10507000295002F08BF802214DF22A5002F086F8F6
:10508000F2214DF22B5002F081F802214DF22C500A
:1050900002F07CF8FE214DF22D5002F077F803214A
:1050A0004DF22E5002F072F810214DF22F5002F006
:1050B0006DF803214DF2305002F068F833214DF2C3
:1050C000315002F063F803214DF2325002F05EF8E5
:1050D0006D214DF2335002F059F800214FF4564043
:1050E00002F054F833214DF2016002F04FF8002134
:1050F0004DF2026002F04AF834214DF2036002F0F2
:1051000045F800214DF2046002F040F83A214DF2DA
:10511000056002F03BF800214DF2066002F036F81F
:105120004A214DF2076002F031F800214DF208608B
:1051300002F02CF85C214DF2096002F027F8002102
:105140004DF20A6002F022F881214DF20B6002F06C
:105150001DF800214DF20C6002F018F8A6214DF266
:105160000D6002F013F800214DF20E6002F00EF80F
:10517000E5214DF20F6002F009F801214DF21060B7
:1051800002F004F813214DF2116001F0FFFF01213C
:105190004DF2126001F0FAFF54214DF2136001F05C
:1051A000F5FF01214DF2146001F0F0FF82214DF274
:1051B000156001F0EBFF01214DF2166001F0E6FFF2
:1051C000CA214DF2176001F0E1FF02214DF2186093
:1051D00001F0DCFF00214DF2196001F0D7FF022140
:1051E0004DF21A6001F0D2FF01214DF21B6001F077
:1051F000CDFF02214DF21C6001F0C8FF34214DF2B9
:105200001D6001F0C3FF02214DF21E6001F0BEFFE0
:1052100067214DF21F6001F0B9FF02214DF22060BD
:1052200001F0B4FF84214DF2216001F0AFFF0221B3
:105230004DF2226001F0AAFFA4214DF2236001F09B
:10524000A5FF02214DF2246001F0A0FFB7214DF22D
:10525000256001F09BFF02214DF2266001F096FFD0
:10526000CF214DF2276001F091FF02214DF228601D
:1052700001F08CFFDE214DF2296001F087FF022151
:105280004DF22A6001F082FFF2214DF22B6001F015
:105290007DFF02214DF22C6001F078FFFE214DF2DE
:1052A0002D6001F073FF03214DF22E6001F06EFFBF
:1052B00010214DF22F6001F069FF03214DF23060A3
:1052C00001F064FF33214DF2316001F05FFF0321F3
:1052D0004DF2326001F05AFF6D214DF2336001F062
:1052E00055FF55214FF4704001F050FFAA214FF2B5
:1052F000010001F04BFF52214FF2020001F046FF86
:1053000008214FF2030001F041FF00214FF2040099
:1053100001F03CFFCC214FF4314001F037FF002178
:105320004BF2011001F032FF05214FF4364001F03D
:105330002DFF70214FF4374001F028FF70214BF210
:10534000017001F023FF01214FF4384001F01EFFEE
:1053500003214BF6010001F019FF03214BF6020077
:1053600001F014FF03214BF6030001F00FFF0221AF
:105370004FF43C4001F00AFF00214BF6014001F0E0
:1053800005FF00214BF6024001F000FFD0214FF451
:10539000494001F0FBFE02214CF6011001F0F6FE3F
:1053A00050214CF6021001F0F1FE50214CF6031092
:1053B00001F0ECFE50214CF6041001F0E7FE002154
:1053C0004FF4545001F0E2FE55214FF4685001F0C3
:1053D000DDFE4FF4885001F0C3FE782003F08EF814
:1053E0004FF4245001F0BCFE01F064B9FE488088FF
:1053F00049F2253188427DD147F6F001E52001F0E0
:10540000C5FE4FF48071012001F0C0FE4FF4E06151
:10541000022001F0BBFE41F23001032001F0B6FE94
:105420000021042001F0B2FE40F20221082001F028
:10543000ADFE0021092001F0A9FE00210A2001F0A3
:10544000A5FE00210C2001F0A1FE00210D2001F09D
:105450009DFE00210F2001F099FE0021102001F097
:1054600095FE0721112001F091FE0021122001F08C
:105470008DFE0021132001F089FE0021072001F09C
:1054800085FE41F29061102001F080FE40F227215C
:10549000112001F07BFE9D21122001F077FE4FF4D8
:1054A000C851132001F072FE2521292001F06EFE63
:1054B0000D212B2001F06AFE0721302001F066FE4D
:1054C00040F20331312001F061FE0321322001F06E
:1054D0005DFE40F20621352001F058FE08213620FD
:1054E00001F054FE40F20641372001F04FFE4FF428
:1054F000417100E058E0382001F048FE07213920D2
:1055000001F044FE40F202613C2001F03FFE082120
:105510003D2001F03BFE0021502001F037FEEF213D
:10552000512001F033FE0021522001F02FFE40F205
:105530003F11532001F02AFE4FF42741602001F073
:1055400025FE0121612001F021FE00216A2001F0E9
:105550001DFE0021802001F019FE0021812001F0B4
:1055600015FE0021822001F011FE0021832001F0B0
:105570000DFE0021842001F009FE0021852001F0AC
:1055800005FE1021902001F001FE4FF4C061922031
:1055900001F0FCFD40F23311072001F0F7FD22215C
:1055A000002001F0F3FD1FE78F48808849F2283181
:1055B00088427DD141F28F01EC2001F0E7FD41F2FC
:1055C0003421EF2001F0E2FD4FF48071012001F061
:1055D000DDFD4FF4E061022001F0D8FD41F2300121
:1055E000032001F0D3FD0021042001F0CFFD40F2A3
:1055F0000221082001F0CAFD0021092001F0C6FDAA
:1056000000210A2001F0C2FD01210C2001F0BEFDA5
:1056100000210D2001F0BAFD00210F2001F0B6FDA0
:105620000021102001F0B2FD0721112001F0AEFD94
:105630000021122001F0AAFD0021132001F0A6FD97
:105640000121072001F0A2FD322002F03BFF41F2D0
:105650009041102001F09AFD40F22721112001F025
:1056600095FD322002F02EFF8A21122001F08EFDDE
:10567000322002F027FF4FF4D051132001F086FDB5
:105680000621292001F082FD0D212B2001F07EFD55
:10569000322002F017FF0021202001F077FD0021C9
:1056A000212001F073FD322002F00CFF002100E008
:1056B00075E0302001F06AFD40F20461312001F014
:1056C00065FD40F20531322001F060FD00213520FA
:1056D00001F05CFD40F60941362001F057FD4FF422
:1056E0000171372001F052FD40F20131382001F004
:1056F0004DFD40F20771392001F048FD00213C20AA
:1057000001F044FD40F60A213D2001F03FFD32202A
:1057100002F0D8FE0021502001F038FDEF21512089
:1057200001F034FD0021522001F030FD40F23F1124
:10573000532001F02BFD4FF42741602001F026FD9E
:105740000121612001F022FD00216A2001F01EFDEF
:105750000021802001F01AFD0021812001F016FDBA
:105760000021822001F012FD0021832001F00EFDB6
:105770000021842001F00AFD0021852001F006FDB2
:105780001021902001F002FD4FF4C061922001F041
:10579000FDFC40F23311072001F0F8FC24E612482A
:1057A000808849F2203188427ED10021084601F0EC
:1057B000EDFC4FF48071012001F0E8FC4FF4E06152
:1057C000022001F0E3FC41F23001032001F0DEFC95
:1057D0000021042001F0DAFC40F20221082001F04F
:1057E000D5FC0021092001E0F400002001F0CEFCEE
:1057F00000210A2001F0CAFC01210C2001F0C6FCA6
:1058000000210D2001F0C2FC00210F2001F0BEFCA0
:10581000322002F057FE40F20111072001F0B6FCE1
:10582000322002F04FFE4FF48651102001F0AEFC02
:105830000721112001F0AAFC4FF48871122001F019
:10584000A5FC4FF43061132001F0A0FC00212920B9
:1058500001F09CFC44F210012B2001F097FC002188
:10586000502001F093FCEF21512001F08FFC00212A
:10587000522001F08BFC40F23F11532001F086FCD6
:105880004FF41C51602001F081FC0121612001F0E6
:105890007DFC00216A2001F079FC0021802001F0CC
:1058A00075FC0021812000E030E001F06FFC002158
:1058B000822001F06BFC0021832001F067FC0021B5
:1058C000842001F063FC0021852001F05FFC1021A1
:1058D000902001F05BFC0021922001F057FC012197
:1058E000932001F053FC4FF48871952001F04EFC99
:1058F0000021972001F04AFC0021982001F046FC8D
:1059000040F27311072001F041FC6DE5FE488088EC
:1059100049F2313188427DD141F21401E72001F092
:1059200035FC4FF48071012001F030FC4FF4007120
:10593000022001F02BFC41F23801032001F026FC8B
:1059400040F20221082001F021FC0021092001F091
:105950001DFC00210A2001F019FC00210C2001F09F
:1059600015FC00210D2001F011FC00210F2001F099
:105970000DFC0021102001F009FC0721112001F08D
:1059800005FC0021122001F001FC0021132001F090
:10599000FDFBC82002F096FD41F29061102001F05D
:1059A000F5FB40F22721112001F0F0FB322002F03C
:1059B00089FD0C21122001F0E9FB322002F082FD6A
:1059C0004FF40061132001F0E1FB1121292001F0C7
:1059D000DDFB0B212B2001F0D9FB322002F072FD00
:1059E0000021202001F0D2FB40F23F11212001F0E4
:1059F000CDFB0021302001F0C9FB4FF48371312031
:105A000001F0C4FB0021322001F0C0FB4FF4017112
:105A1000352000E064E001F0B9FB41F20A61362074
:105A200001F0B4FB40F20771372001F0AFFB4FF4F7
:105A30008371382001F0AAFB40F20771392001F090
:105A4000A5FB40F202413C2001F0A0FB40F60F41D3
:105A50003D2001F09BFB0021502001F097FBEF213E
:105A6000512001F093FB0021522001F08FFB40F206
:105A70003F11532001F08AFB4FF41C51602001F0CC
:105A800085FB0121612001F081FB00216A2001F0EA
:105A90007DFB0021802001F079FB0021812001F0B5
:105AA00075FB0021822001F071FB0021832001F0B1
:105AB0006DFB0021842001F069FB0021852001F0AD
:105AC00065FB1021902001F061FB4FF4C061922032
:105AD00001F05CFB40F23311072001F057FB83E437
