:020000040800F2
:10000000680F00204D020008351C0008A5180008E4
:10001000311C000823160008EB2100080000000036
:10002000000000000000000000000000FD1D0008AE
:10003000CD17000800000000B11C0008151F0008C3
:1000400067020008670200086702000867020008EC
:1000500067020008670200086702000867020008DC
:1000600067020008670200086702000867020008CC
:1000700067020008670200086702000867020008BC
:1000800067020008670200086702000867020008AC
:10009000670200086702000867020008670200089C
:1000A000670200086702000867020008670200088C
:1000B000670200086702000867020008670200087C
:1000C000670200086702000867020008670200086C
:1000D00067020008811F0008670200080920000865
:1000E000670200086702000867020008670200084C
:1000F000670200086702000867020008670200083C
:10010000670200086702000867020008670200082B
:10011000670200086702000867020008670200081B
:10012000670200086702000867020008670200080B
:1001300067020008670200086702000867020008FB
:1001400067020008670200086702000867020008EB
:1001500067020008670200086702000867020008DB
:1001600067020008670200086702000867020008CB
:1001700067020008670200086702000867020008BB
:10018000670200086702000800F002F800F04FF86C
:100190000AA090E8000C82448344AAF10107DA45E2
:1001A00001D100F044F8AFF2090EBAE80F0013F0E5
:1001B000010F18BFFB1A43F0010318475C3700001A
:1001C0007C370000103A24BF78C878C1FAD85207AB
:1001D00024BF30C830C144BF04680C6070470000C1
:1001E0000023002400250026103A28BF78C1FBD840
:1001F000520728BF30C148BF0B607047662903F023
:100200002D82642900F08E80732900F02484002060
:1002100070471FB503F01DFA00F034FC0400002005
:10022000002103F089F9E0601FBD10B510BD00F09A
:100230002DFD1146FFF7EDFF02F0F6FF00F04BFD3C
:1002400003B4FFF7F2FF03BC02F02FFB094880471D
:1002500009480047FEE7FEE7FEE7FEE7FEE7FEE7A8
:10026000FEE7FEE7FEE7FEE704480549054A064BC0
:1002700070470000191F0008890100086809002064
:10028000680F0020680B0020680B002070470000FA
:100290000FB4044910B503AA029800F0E1FB10BCAA
:1002A0005DF814FB140000200FB41CB5074B06AA20
:1002B0007B4469460090059800F0A3FB0020694646
:1002C00000F0B2FB1CBC5DF814FB000075070000D9
:1002D00070B50C460546012A05D02878800600D561
:1002E000EA69002302E0012305E05B1C934202D28D
:1002F000E05C0028F9D1A869E618C01AA861286A4C
:10030000184428622846AFF3008004E0D5E90121B3
:1003100014F8010B9047B442F8D32846AFF300809D
:1003200070BD00002DE9F0410646002410687529D3
:10033000314616A510D0AFF30080002802DA404203
:1003400013A507E031688A0701D512A502E0490725
:1003500004D511A5012401E0AFF3008000210A2299
:1003600006F1240709E0B0FBF2FCB0FBF2F302FB5C
:100370001C00303078541846491C0028F3D123461D
:100380002A463046BDE8F04100F0CFB8000000003A
:100390002D0000002B000000200000002DE9F04798
:1003A0004FF0000A89460446C0F820A02046E168C4
:1003B0008847002876D0252806D0D4E90121904727
:1003C000206A401C2062F1E7E1682046002588474A
:1003D000C4F81CA006460027C4F818A02A2E09D08D
:1003E000304602F05BFA38B304EB8708303EC8F8B9
:1003F000186019E059F8041B204604EB870291614C
:10040000E1688847012F064618D1E069002820DA04
:1004100025F020051DE0D8F8180000EB800006EB61
:1004200040003038C8F818002046E1688847064682
:1004300002F034FA0028EED1012F0AD02E2E08D176
:100440002046E16888477F1C0646022F45F02005BC
:10045000C4DBA069002803DA404245F00105A06131
:10046000E80701D025F01005B6B1A6F14100192822
:1004700002D8203645F400654A46314620462560BC
:100480004D46FFF7BBFE58B1012806D0ED1D25F003
:10049000070000F1080989E704E005F1040985E790
:1004A00030468AE7206ABDE8F08730B505460B463E
:1004B0002A4613F8014B12F8010B08B1A042F8D0FC
:1004C0001CB1002802D06D1CF1E7284630BD10B5E4
:1004D000431C02E010F8011B71B18107FAD14FF003
:1004E000013202C88C1A8C4314EAC211F9D0C01A26
:1004F0000A0603D0C01E10BDC01A10BD0A0401D0E8
:10050000801E10BD0902FCD0401E10BD7047704710
:100510007047704710B500F0B9FA006810BD10B50B
:10052000044600F0B3FA046010BD2DE9F0470D4613
:1005300099469246044600F124080168880604D5CD
:10054000E06921F01001216000E00120A84201DDF6
:10055000471B00E00027A1697A1902EB0900081A7D
:10056000A0612078C00602D42046AFF300800026A8
:1005700008E0D4E901211AF806009047206A401CDF
:10058000761C20624E45F4DB2078C0060AD5204652
:10059000AFF3008006E0D4E9012130209047206AC3
:1005A000401C2062381EA7F10107F4DC07E0D4E903
:1005B000012118F805009047206A401C2062281E7F
:1005C000A5F10105F3DC2046AFF30080207800069A
:1005D00002D50220BDE8F0870120FBE770472DE936
:1005E000FF4F0C461E464FF0FF378BB0D2E900019B
:1005F000DDF860800A908A46C1F30A5505B93D4688
:10060000002108464FF00000BAF1000F00F440004E
:1006100005DA00EB80004FF4400101EA50004FEA98
:100620009059B9F1010F00DDB9460A9850EA4A0025
:100630000ED044F61050A5F2FF3545432F14B8F103
:10064000000F1ED07542291E1EDDC9F100021CE0FC
:10065000B8F1010F4FF0000001D0302103E0F24368
:1006600005E02154401CB042FBDB30460022002153
:1006700021540B99C1F80880C1E900200FB0BDE8F2
:10068000F08FBD1B6D1CDEE74A4600DA694206A802
:1006900000F086FA06AB93E8070003AB83E8070097
:1006A00050460A9900F05EFB8DE80700A0F5005067
:1006B0001F3800900398002D09DD42F21F014A46C1
:1006C000084403A90390684600F0BDFD08E0A0F5CA
:1006D00000504A461F3803A90390684600F0C7FD42
:1006E0008DE807000004000C03D04FF0FF304108F4
:1006F00000E01046B8F1000F03D00022009215462A
:100700001EE0751E05D400F0C5F9303262556D1E2D
:10071000F9D5B3460122084302D000227F1C04E031
:100720002078302801D100227F1E002A099786D028
:100730001DE0112D07DA00F0ADF9303262556D1C65
:1007400050EA0102F5D1084302D00098C8B10EE08A
:100750000021681E05E0235C625C63542254401E45
:10076000491C8142F7DBAB46A81B401E09900020C4
:1007700004F80B000B98099AC0F80880C0E9002B18
:100780007CE711264FF0000859E72DE9F04F884625
:100790000446D21D22F0070191B0D1E90001CDE954
:1007A0000A0101F024FD02460B98C00F01D02D2054
:1007B00007E02068810701D52B2002E0202101EA13
:1007C000C000032A099001D0072A05DB03464146F1
:1007D000204600F0A5F90BE12078800601D5E069FC
:1007E00000E00620B8F1650F814606D0B8F1660F2B
:1007F00018D0B8F1670F70D131E00020B9F1110FB6
:10080000009001DB112301E009F101030AAA01A90B
:100810000CA8FFF7E4FEDDE90C70002609F10105E4
:10082000834647E001204B4600904FF000470AAA5C
:1008300001A90CA8FFF7D3FEDDE90DB00C995D46C8
:10084000002610B909F101000D18B9EB050003D419
:10085000C0F1FF3609F10105A5EB09002BE0B9F164
:10086000010F01DA4FF001090020B9F1110F0090DA
:10087000484601DD112300E003460AAA01A90CA89D
:10088000FFF7ADFEDDE90C704D460026834620786B
:1008900000070AD4AB4500DA5D4601A8012D04DD4E
:1008A000411911F8011C302907D04F4502DA17F120
:1008B000040F04DA012082460FE06D1EEEE7002FE0
:1008C00002DCED1B3E4403E0781CA84200DD7D1CE9
:1008D000B81B00F1010A4FF000472078000703D44D
:1008E000AA4501DB4FF0FF3A0021B7F1004F0DF1AF
:1008F00043088DF8431024D002202B23002F01DA67
:100900007F422D230A21021EA0F1010000DC5FB10D
:1009100097FBF1FC97FBF1F201FB1C7C17460CF1F5
:10092000300C08F801CDEEE7A8F101000370218832
:10093000090501D5452100E06521A0F1010800F875
:10094000011C09980FA9A1EB0807FF1D00B10120A8
:10095000411901EBEA70A1693844081A401EA061F0
:100960002078C00602D42046AFF30080099828B151
:10097000D4E901219047206A401C20622078C006FB
:1009800022D52046AFF300801EE0002E04DBB345E5
:1009900002DD01A8805D00E03020D4E9012190470C
:1009A000206A401C2062761CAAF101005FEA000A5E
:1009B0000AD100F067F8C0680168405CD4E9012101
:1009C0009047206A401C2062281EA5F10105DCDC4E
:1009D00007E0D4E9012118F8010B9047206A401C78
:1009E0002062381EA7F10107F3DC2046AFF3008038
:1009F000032011B043E6000001694A1C0261087837
:100A0000704700B58FB0CDE901310021059105494E
:100A10007944CDE9031011466846FFF7BFFC0FB0DB
:100A200000BD0000E5FFFFFF0A6802F8010B0A6045
:100A3000704710B5436913B1AFF3008001E0FFF7D1
:100A400047FC012010BD127800F124010A70002239
:100A50004A700122EDE711684FF0FF32E9E700002C
:100A6000074B70B50D467B44FFF7CBFF0446284685
:100A700000F004F910B14FF0FF3070BD204670BD9A
:100A8000A327000000487047240900200048704751
:100A90000409002030B5B0F10A024FEA900E71F15E
:100AA00000034EEA817EB0EB0E0061EB91014FEA4C
:100AB000101E4EEA017E10EB0E0041EB11114FEAC1
:100AC000102E4EEA016E10EB0E0041EB11214FEAA1
:100AD000104E4EEA014E10EB0E0041EB1141401852
:100AE00041F100014FEAD00040EA41704FEAD101E4
:100AF00010EB80054FEA810444EA907444EB010452
:100B00006D1944EB0404521BA3414FF0000348BF8E
:100B10000A3200D530BD401C41F1000130BD00005B
:100B20002DE9F0411F46044603260168072A01F417
:100B3000006004DB08B116A505E016A503E008B1C6
:100B400015A500E015A521F010002060A069C01EC9
:100B5000A0610FB1401EA0612046AFF300804FB1ED
:100B6000D4E9012138469047206A401C2062C01C0D
:100B7000206206E0206AFAE7D4E9012115F8010BAA
:100B80009047761EF8D22046AFF30080BDE8F08192
:100B90004E414E006E616E00494E4600696E660021
:100BA0002DE9F047814616468AB0334878440DC88F
:100BB0008DE80D0030487844801C03AC0DC884E8F3
:100BC0000D0041F69B300844372190FBF1F290FB79
:100BD000F1F5A5F1800501FB12041B3C02D564422E
:100BE000012000E00020DFF890A080460027FA44B2
:100BF000AAF1BE0A0DE0E00709D03246684607EBCD
:100C000047010AEB810100F032FB8DE80700641018
:100C10007F1C002CEFD1184F7F44AC3F18E0E80751
:100C200014D007EB04100DF1180A90E80E008AE8C2
:100C30000E00C068F04201D198190890324606A90A
:100C400003A800F014FB03AB83E807006D10641CDD
:100C5000002DE4D132466946B8F1000F03A802D056
:100C600000F0F1FA01E000F002FBC9E90001C9F867
:100C700008200AB0BDE8F0876C2C0000007B00F073
:100C80008000704700487047040900207546FFF750
:100C9000F9FFAE4605006946534620F00700854639
:100CA00018B020B5FFF7E0FABDE820404FF000068D
:100CB0004FF000074FF000084FF0000B21F0070144
:100CC000AC46ACE8C009ACE8C009ACE8C009ACE887
:100CD000C0098D4670470446AFF300802046FFF7F9
:100CE000AFFA00004FF0013C50F8042B51F8043BE0
:100CF0009A4221D1A2EB0C03934313EACC1317D1F0
:100D000050F8042B51F8043B9A4215D1A2EB0C0386
:100D1000934313EACC130BD150F8042B51F8043B46
:100D20009A4209D1A2EB0C03934313EACC13DBD014
:100D30004FF00000704700BFD01A01BAB1FA81F13C
:100D400001F0180122FA01F0CB40C1F12001DBB221
:100D5000C0B2C01A2CFA01F3D11A914311EAC3119F
:100D6000E6D170475FEA400C08BF91F0000F4FEAF0
:100D70008C234FEAC12243EA51514FEA1C5018BF5D
:100D800000F5F0404FEA300018BF41F000415FEA43
:100D90006C5C00F02980BCF1FF3F08BF40F0804050
:100DA0007047130C06BF12044FF0100C4FF0000CEC
:100DB000130E04BF12020CF1080C130F04BF120132
:100DC0000CF1040C930F04BF92000CF1020CD30F32
:100DD00004BF52000CF1010C11464FF00002A0F1CB
:100DE0001F00A0EB0C00704711F0004F08BF7047C8
:100DF00031F000413FF4D5AF0B0C06BF09044FF0B2
:100E0000100C4FF0000C0B0E04BF09020CF1080C83
:100E10000B0F04BF09010CF1040C8B0F04BF8900F8
:100E20000CF1020CCB0F04BF49000CF1010CCCF10A
:100E30002003A0EB0C0022FA03F302FA0CF241EAC1
:100E4000030100F10100704720F07F4C80EA0300AD
:100E500023F07F47ACEB070303F57C5300F0004021
:100E600003F1FF032DE980494FEA154B09B44FEA1E
:100E7000144325EA0B4E24EA03480FF2042606EB3E
:100E8000132749083E785FEA320203FB0667C7F57D
:100E9000000707FB06F64FEA54374FEAD64606F13D
:100EA000020607FB066CCCF1005C4FEA1C472CEAFB
:100EB000074C07FB06F40CFB06F504EB15464FEA5E
:100EC000961634BF00204FF000404FEAD13706FBA2
:100ED00007FC4FEA1C4C0CFB0BF7D21B03FB0CF777
:100EE00061EB07010CFB0EF7B0EB074072EB17420A
:100EF0000CFB08F734BFA2EB0742B2EB074261EBF1
:100F000017414FEA0C444FEA910706FB07FC4FEAF2
:100F10001C4C0CFB0BF7B0EBC74072EB573203FBDA
:100F20000CF734BFA2EBC742B2EBC74261EB5731BB
:100F30000CFB0EF7B0EBC70072EB57720CFB08F717
:100F400034BFA2EBC702B2EBC70261EB5771039F3C
:100F50004FEA816141EA921104EBCC044FEAD137A8
:100F60004FEA826206FB07FC42EA90124FEA806079
:100F70004FEA1C4C0CFB0BF7D21B03FB0CF761EB8D
:100F800007010CFB0EF7B0EB074072EB17420CFBAE
:100F900008F734BFA2EB0742B2EB074261EB1741FF
:100FA0004FEA8C554FEA910704EB9C2406FB07FCA3
:100FB0004FEA1C4C0CFB0BF7B0EBC74072EB5732FF
:100FC00003FB0CF734BFA2EBC742B2EBC74261EBA5
:100FD00057310CFB0EF7B0EBC70072EB57720CFBEE
:100FE00008F734BFA2EBC702B2EBC70261EB57713F
:100FF00015EB4C254FEA816141EA92114FEA82627A
:101000004FEAD13742EA901206FB07FC44F1000494
:101010004FEA80604FEA1C4C0CFB0BF7D21B03FB22
:101020000CF761EB07010CFB0EF7B0EB074072EB1E
:1010300017420CFB08F734BFA2EB0742B2EB0742A2
:1010400061EB174115EB1C154FEA813141EA9241E2
:101050004FEA823242EA90424FEA80304FEA0C7601
:1010600044F1000448EA03434EEA0B484FF0000EF7
:10107000B2EB080C71EB030724BF624639464EEB16
:101080000E0E4FF0000B0018524149414BEB0B0B79
:10109000B2EB080C71EB03077BF1000B24BF624637
:1010A00039464EEB0E0E4FF0000B001852414941ED
:1010B0004BEB0B0BB2EB080C71EB03077BF1000B56
:1010C00024BF624639464EEB0E0E51EA020718BFA6
:1010D00046F0010616EB0E7655F1000254F10001C0
:1010E00003D5BDE88901BDE80088BDE88901BDE8F8
:1010F0000048B619524141EB0101A3F101037047C9
:1011000080807F7E7D7C7B7A797877767675747344
:10111000727171706F6E6E6D6C6C6B6A6A69686803
:10112000676666656464636362616160605F5F5E99
:101130005E5D5D5C5C5B5B5A5A595958585757560F
:101140005655555554545353525252515150505074
:101150004F4F4F4E4E4D4D4D4C4C4C4B4B4B4A4AC6
:101160004A4949494848484747474746464645450A
:101170004544444444434343434242424241414143
:10118000002B26D4770021D01CB54FEA370703B4D3
:101190004FF010004FF010014FF000000FBCBDE801
:1011A00010400BF1010BBBF1010F08BF5FEA1707FD
:1011B00022BF12F1010211F101014FF0004143F190
:1011C000000300F0004043EA00007047F9D35708DD
:1011D000DAE746EA064613F1400F4FEA16461FDDEE
:1011E00013F1200FDFBF16430A46002120335B4274
:1011F000C8D0C3F1200746EA064602FA07F74FEACD
:10120000164646EA0706C3F1200722FA03F201FA5E
:1012100007F721FA03F14FF0000342EA0702B1E7B2
:1012200046EA020646EA06464FEA164646EA01063E
:10123000BCBF46EA0646360C4FF000034FF00002F2
:101240004FF000019EE72DE9C048934630B491E885
:10125000380007C831EA400C48BF34EA430C03D5D4
:10126000FFF7F2FDFFF78CFFF0BCBDE800882DE929
:10127000C048934630B491E8380007C810F0804F5A
:1012800008BF13F0804F03D100F005F8FFF778FF97
:10129000F0BCBDE8008820F07F4780EA030023F01F
:1012A0007F4C07EB0C03A3F57C5300F00040A3F147
:1012B000FE0392F0000F00F0B38095F0000F00F0F5
:1012C00077802DE901494FEA11404FEA144621EA9F
:1012D000004800FB06FC24EA064708FB06F607FB6D
:1012E00008F800FB07F718EB06484CEB164C4FEAE2
:1012F000124B18EB07484FEA15464CEB174022EA11
:101300000B4E0BFB06FC25EA06470EFB06F607FB19
:101310000EFE0BFB07F71EEB064E4CEB164C4FF088
:1013200000061EEB074E4CEB174B18EB0B0840F179
:10133000000018EB0E0B58EB000840F100008F1A6C
:101340004FF000013CBFC943661B14BFB5EB040C52
:1013500000213CBFC943F61B4FEA17444EEA8E0EEC
:1013600027EA04454FEA1C4704FB07622CEA074CB6
:1013700005FB07F70CFB05F604FB0CFC16EB074618
:1013800042EB174216EB0C4642EB1C421BEB0606E7
:1013900058EB0202414146EA9E0601D5BDE80189AB
:1013A000B619524141EB0101A3F10103BDE80189E6
:1013B0004FEA14454FEA114724EA054621EA074C53
:1013C00005FB07F406FB07F70CFB06F105FB0CFC1D
:1013D00011EB074144EB17444FEA124711EB0C4164
:1013E00044EB1C4422EA074C05FB07F206FB07F717
:1013F0000CFB06F605FB0CFC16EB074642EB17420E
:1014000016EB0C4642EB1C456A1854F1000148BF2C
:101410007047B619524141EB0101A3F10103704736
:1014200095F0000F37D04FEA11424FEA144721EAF6
:10143000024624EA074C02FB07F106FB07F70CFB08
:1014400006F402FB0CFC14EB074441EB17414FEA96
:10145000154714EB0C4441EB1C4125EA074C02FBF9
:1014600007F506FB07F70CFB06F602FB0CFC16EB78
:10147000074645EB174516EB0C4645EB1C42121987
:1014800051F1000148BF7047B619524141EB0101CB
:10149000A3F1010370474FEA14454FEA114724EACC
:1014A000054621EA074C05FB07F106FB07F70CFB95
:1014B00006F24FF0000605FB0CFC12EB074241EB75
:1014C000174112EB0C4251EB1C4148BF7047921878
:1014D00041EB0101A3F10103704721B1826842F0A1
:1014E0000102826003E0826822F00102826070479C
:1014F0000146C86C80B270470246002013680B405A
:101500000BB1012000E000207047000030B502461A
:10151000002000235068104C20400D790C6844EAEC
:1015200005242043506090680C4C2040D1E90354BE
:101530002C438D682C434D7944EA45042043906048
:10154000D06A20F470000C7D641EE4B2234340EAAC
:101550000350D06230BD0000FFFEFFFCFDF7FFC06E
:10156000F0B504460D4600200021092D11DDE0688C
:10157000A5F10A0606EB4607072606FA07F1884397
:10158000A5F10A0606EB460603FA06F10843E060F9
:101590000CE0206905EB4507072606FA07F18843AA
:1015A00005EB450603FA06F108432061072A0FDA26
:1015B000606B561E06EB86071F2606FA07F1884366
:1015C000561E06EB860605FA06F10843606322E024
:1015D0000D2A0FDA206BD61F06EB86071F2606FAA8
:1015E00007F18843D61F06EB860605FA06F1084385
:1015F000206310E0E06AA2F10D0606EB86071F26C5
:1016000006FA07F18843A2F10D0606EB860605FAF5
:1016100006F10843E062F0BD816841F080418160DD
:10162000704700BFFEE7000010B5002414480068B2
:1016300020F440201249086008460068086004E071
:10164000601CC4B2012001F06DF90E48006808B1B9
:10165000642CF5DB642C01DB012010BD002404E0C8
:10166000601CC4B2012001F05DF90648006808B9A9
:10167000642CF5DB642C01DB0120EEE70020ECE7B5
:1016800000180240240243421CB50121402000F012
:1016900011FB4FF40070009001208DF80400002031
:1016A0008DF8060002208DF8050001208DF8070056
:1016B0006946044800F08BF800F068F8FFF7B4FFC3
:1016C0001CBD00000018024010B5002404E0601C9E
:1016D000C4B2012001F026F90D48006808B1642C5D
:1016E000F5DB002404E0601CC4B2012001F01AF90B
:1016F0000748006808B9642CF5DB282001F012F9CE
:101700000348006808B1012010BD0020FCE700007C
:101710002402434270B50024002506E06006040E52
:10172000FFF7D2FF0443681CC5B2082DF6DB204644
:1017300070BD7CB505460E4600F028F8FFF774FF33
:10174000F8B9002405E0FFF7E5FF0DF80400601C80
:10175000C4B2052CF7DB9DF800009DF80110084489
:101760009DF8021008449DF8031008449DF80410E9
:10177000884208D19DF8000030709DF80200287062
:1017800001E001207CBD0020FCE7000010B50C4802
:10179000006820F440200A4908600846006840F4C8
:1017A00080200860002007490860142001F09EF89E
:1017B00001200549C1F8A4021E2001F0B3F810BDB4
:1017C00000180240A4024342000043427047F0B5B3
:1017D0000A4600210023002400BF3DE0012505FA50
:1017E00001F3156805EA03049C4234D105684F00F3
:1017F0000326BE40B543056015794E00B540066826
:10180000354305601579012D02D01579022D16D1C9
:1018100085684F000326BE40B543856055794E006C
:10182000B540866835438560456801268E40B543DE
:101830004560456896798E40B6B235434560C568C7
:101840004F000326BE40B543C560D5794E00B54074
:10185000C6683543C560491C1029BFD3F0BDF0B53B
:10186000002300244D07ED0E02FA05F3CE1000F11F
:10187000200555F826504E07F70E0F26BE40B543FB
:10188000CF1000F1200646F82750CE1000F12005B9
:1018900055F8265045EA0304CE1000F1200545F81E
:1018A0002640F0BD00BFFEE700B589B0012104204D
:1018B00000F000FA0121080200F01CFA0220079053
:1018C00003208DF8200000208DF8230007A90C4884
:1018D000FFF77DFF002001908DF808008DF80900CA
:1018E00003900490059001208DF8180001A9054887
:1018F000FFF70CFE01210348FFF7EFFD09B000BD23
:10190000000802400020014010B52DED048B9FED32
:101910001C0AF0EE408A00240AE000F09FF830EE46
:10192000280AF0EE408A322000F0E0FF601CC4B2CA
:101930001E2CF2DBB3EE0E0A88EE808A9FED110AB0
:10194000B4EEC08AF1EE10FA03D29FED0E0AB0EEAB
:10195000408AF1EE040A80EE880AF7EE000A30EEC3
:10196000600AF1EE040A20EE209AB1EE0A0AC9EEEE
:10197000000A0548C0ED000ABDEC048B10BD000054
:10198000000000000AD7233C2000002010B52DEDF8
:10199000028B00F039F8F0EE408A9FED170AF4EE62
:1019A000C08AF1EE10FA03D89FED130AF0EE408AD8
:1019B000FFEE080AB0EE680A00F044FCDFED0F0A03
:1019C00020EE208AB5EEC08AF1EE10FA03D29FED28
:1019D0000C0AB0EE408A9FED0B0AB4EEC08AF1EE1D
:1019E00010FA03DD9FED070AB0EE408AB0EE480A18
:1019F000BDEC028B10BD00000AD7233C00007A44E6
:101A00000000000000401C4610B52DED028B00F0D8
:101A100025F8B0EE408A9FED0F0AB4EEC08AF1EED1
:101A200010FA03D29FED0B0AB0EE408AB1EE040A21
:101A3000C0EE080AB7EE000A30EEC00AF1EE040A62
:101A400060EE208A0448D0ED000A88EEA00ABDECC2
:101A5000028B10BD0AD7233C2000002010B52DEDCD
:101A6000048B9FED300AB0EE408A0A2000F082F825
:101A700008EE900AB8EE680A9FED2B1AC0EE010A34
:101A80009FED2A0A20EE800AB0EE409A28482949A4
:101A9000097800EB810080ED009A26480078401C10
:101AA0002449087008460078052801DB00200870EA
:101AB0002048007810B901201F4908701E4800789E
:101AC000A8B100240AE01A4800EB840090ED000A57
:101AD00030EE080AB0EE408A601CC4B2052CF2DB7E
:101AE000F1EE040A88EE200ABDEC048B10BD002440
:101AF0000AE00F4800EB840090ED000A30EE080A7F
:101B0000B0EE408A601CC4B20A4800788442F0DD1E
:101B100008480078401C00EE100AF8EEC00A88EE73
:101B2000200AE1E70000000000F07F453333534016
:101B3000F008002024000020250000201CB5002013
:101B4000009001900121052000F0B4F801200090E0
:101B500000208DF8040002208DF807008DF80500A4
:101B600069460348FFF733FEFFF79EFE1CBD0000E9
:101B7000000002402DE9F0438FB005464FF0000908
:101B800000270F2D00DD0F25032D00DA032500248B
:101B900019E0072301220B212448FFF7E1FC234829
:101BA000FFF73AFD00BF02212048FFF7A5FC0028FF
:101BB000F9D01E48FFF79CFC4DF82400052000F0EA
:101BC00095FE601CC4B2AC42E3DB002416E0601C4E
:101BD000C6B20FE05DF824005DF82610884207D9F0
:101BE0005DF824805DF826004DF824004DF826802D
:101BF000701CC6B2AE42EDDB601CC4B2681EA042CF
:101C0000E5DC012406E05DF824008144781CC7B2BD
:101C1000601CC4B2681EA042F5DC1FB900980FB06A
:101C2000BDE8F083B9FBF7F0F9E7000000200140C0
:101C300000BFFEE77047000070B5002100230F22AF
:101C4000C4781CB3174C246804F4E064C4F5E06461
:101C5000C4F30721C1F10404E3B20A4144789C4073
:101C6000E1B28478144021430C07210E0E4C057814
:101C70006155047804F01F050124AC4005786D110E
:101C8000AD0005F1E025C5F8004109E0047804F055
:101C90001F050124AC40054D0678761145F8264015
:101CA00070BD00000CED00E000E400E080E100E029
:101CB0007047000029B1064A12680243044B1A60BB
:101CC00004E0034A12688243014B1A607047000027
:101CD0003038024029B1064A12680243044B1A60A8
:101CE00004E0034A12688243014B1A607047000007
:101CF0004038024029B1064A12680243044B1A6078
:101D000004E0034A12688243014B1A6070470000E6
:101D100044380240F0B500210022002402250026AC
:101D20000223324F3F6807F00C0121B1042905D08E
:101D3000082937D105E02E4F076036E02D4F0760A8
:101D400033E02A4F3F1F3F68C7F38056274F3F1F9E
:101D50003F6807F03F036EB1264FB7FBF3F7DFF89C
:101D60008CC0ACF1040CDCF800C0CCF3881C07FB81
:101D70000CF40CE01E4FB7FBF3F7DFF870C0ACF1CA
:101D8000040CDCF800C0CCF3881C07FB0CF4174FE4
:101D90003F1F3F68C7F301477F1C7D00B4FBF5F789
:101DA000076002E0124F076000BF00BF0F4F3F689F
:101DB00007F0F0010909104F7A5C0768D7404760C7
:101DC0000A4F3F6807F4E051890A0B4F7A5C476875
:101DD000D7408760054F3F6807F46041490B064FC5
:101DE0007A5C4768D740C760F0BD00000838024001
:101DF0000024F40000127A00000000207047000068
:101E00000CB50020019000903448006840F4803008
:101E10003249086000BF3148006800F4003000908B
:101E20000198401C0190009818B90198B0F5A04F96
:101E3000F1D12A48006800F4003010B10120009070
:101E400001E0002000900098012846D1234840304E
:101E5000006840F080502149403108602048006807
:101E600040F440401E4908601C48083000681B4987
:101E7000083108600846006840F4004008600846E1
:101E8000006840F4A05008601648091F0860081F49
:101E9000006840F08070091F086000BF0F480068AC
:101EA00000F000700028F9D040F205700E4908607B
:101EB0000A480830006820F003000849083108602B
:101EC0000846006840F00200086000BF0348083080
:101ED000006800F00C000828F8D10CBD0038024062
:101EE0000070004008544007003C0240042808D11C
:101EF0004FF0E021096941F004014FF0E022116147
:101F000007E04FF0E021096921F004014FF0E022E1
:101F1000116170477047000010B51548006840F423
:101F20007000134908601348006840F0010011492F
:101F3000086000200F49083108600E4800680E490B
:101F400008400C4908600D48091D0860081F00681A
:101F500020F48020091F0860002006490C31086029
:101F6000FFF74EFF4FF0006001498039086010BD57
:101F700088ED00E000380240FFFFF6FE103000243C
:101F800010B540F225511D4800F070F810B31B4801
:101F900000F026F9C4B21A48008800F40040C8B91D
:101FA0001748008800F4804060B10A2C03D000205C
:101FB0001349088020E01248008840F4004010498E
:101FC000088019E00D2C06D10D48008840F48040AF
:101FD0000B49088010E00A480088C0F30D00094949
:101FE0000C5407480088401C0549088008460088B2
:101FF000C72801DD0020088010BD0000001001404E
:10200000180000202800002010B540F22551064895
:1020100000F02CF830B1044800F0E2F8C4B22046D9
:1020200000F056FE10BD0000004800400BE000BF6D
:102030000749098801F040010029F9D010F8011B77
:10204000034A121D118001780029F0D17047000069
:102050000048004021B1828942F40052828104E0AC
:1020600082894DF6FF731A408281704770B502462F
:10207000002400230025002040F66A16B14200D15A
:1020800000BFC1F3421501F01F03012606FA03F356
:10209000012D02D19689334006E0022D02D1168A25
:1020A000334001E0968A33400C12012606FA04F40C
:1020B0001688344013B10CB1012000E0002070BD3F
:1020C000F0B50346002400260025002040F66A17DC
:1020D000B94200D100BF1846C1F3421401F01F06F7
:1020E000012707FA06F5012C01D10C3004E0022C7F
:1020F00001D1103000E014301AB107682F43076097
:1021000002E00768AF430760F0BD00002DE9FF471C
:1021100005460E460024A14600BFA046B08900B186
:1021200000BF2C8A24F44054F08804432C82AC89EC
:1021300041F20C608443B0883189084371890843B7
:102140000443AC81AC8A24F44074B0890443AC826B
:102150006846FFF7DFFD2048854202D01F488542D0
:1021600002D1DDF80C9001E0DDF80890A88900F4B8
:10217000004040B109EBC90000EB0910316849008B
:10218000B0FBF1F707E009EBC90000EB091031687B
:102190008900B0FBF1F76420B7FBF0F004012009DF
:1021A000642101FB1078A88900F4004040B132207E
:1021B00000EBC800B0FBF1F000F00700044308E0BA
:1021C000322000EB08106421B0FBF1F000F00F00AA
:1021D00004432C81BDE8FF8700100140001401403A
:1021E00001468888C0F30800704700BFFEE703B4CB
:1021F00001984100009850EAC12018BF04204A0D00
:1022000018BF40F0010040F2FF72B2EB515F08BF0F
:1022100040F00200012808BF052002B070474100CD
:10222000080218BF04200A0E18BF40F001004FF04A
:102230007F4232EA010108BF40F00200012808BFD6
:102240000520704710B510EE100A10EE901AB7EE88
:10225000001A0023A0F500042DED028B4FF0007C46
:10226000B4F1FE4FB0EE418A4FF07F420CEB4104D7
:1022700080F08681B4F1804FC0F0CB81FE490144EB
:102280009FEDFE3AB1F5005F40F2AA8200F5802191
:102290004FEAD14C0CF00F0101EE901ACCF3071C61
:1022A000ACF17F0CA0EBCC50B8EEE12A00EE100AA6
:1022B0006344DFEDF32AF0EE411A42EE221AF0EE0B
:1022C000613A30EE232A70EE632A12EE100A00F50E
:1022D00000606FF30B0001EE900A73EEE13A33EE0B
:1022E000804AC1EE023A22EEA30A10EE100A00F56F
:1022F00000606FF30B0000EE100A40EE612A40EE22
:10230000442A62EEA32A70EE221A21EEA12ADFED02
:10231000DD3A02EE233A23EE023A20EE012A22EEC3
:10232000811A03EE211A32EE010A10EE100A00F5AE
:1023300000606FF30B0000EE100A72EE401A31EEEF
:10234000811ADFEDD11A60EE211A9FEDD02A20EE1E
:10235000020A9FEDCF2A01EE020A31EE801A11EE39
:10236000100A00F500606FF30B0001EE100AC94877
:1023700071EEC11A71EE802A784400EBC100D0EDF5
:10238000001A90ED012A180100EE100AB8EEC03ACA
:1023900032EE820A30EE010A30EE210A30EE030AF4
:1023A00010EE100A00F500606FF30B0000EE100A4B
:1023B00030EE433A73EE611A31EEC11A31EE421A31
:1023C00072EEC11A10EE900A00F500606FF30B0078
:1023D00001EE100A70EEC12A20EE012A60EE220AF8
:1023E00031EE220A41EE800A32EE200A10EE100A87
:1023F00000F500606FF30B0000EE100A32EE401A99
:1024000071EE201A70EE210AF5EEC00AF1EE10FA14
:1024100034BFBEEE001AB6EE001A71EE200AFDEED1
:10242000E00A10EE900A011100EE901AB8EEE01AE0
:1024300000EE900AF8EEE00A30EE600A30EE210A73
:10244000DFED951ADFED950A40EE210ADFED941AD3
:10245000944900F00F0040EE201A21EE800A7944E2
:1024600001EB8001D1ED000A8F49794401EB800135
:10247000D1ED001A8D4941EE800A794401EB8000CC
:102480008B4990ED000A70EE800AB0EEC10A10EEA2
:10249000100A884215DA10EE100AB2EB400F10D382
:1024A0009FED840A31EE000A9FED831A68EE200A40
:1024B000BDEC028B20EE010ABCEEC00A20EE200A21
:1024C00010BD10EE100A7D49884233DA10EE100A72
:1024D000B2EB400F2ED3BDEEC10A68EE200A10EE1B
:1024E000100A00EBD0735910C90501F17E5100EEBE
:1024F000101AA0EB6300C00560EE200A00F17E50C8
:1025000000EE100A60EE808A18EE900AB2EB400FDF
:1025100025D018EE900A400011D018EE900AFFF76F
:102520007EFE042808BF00F0B1F9B0EE680ABDECE9
:10253000028B10BDB5EEC01AF1EE10FA0FD20220D8
:10254000FDF7EDFF00F0A2F910EE101A18EE100AD8
:10255000BDEC028B61F31E0000EE100A10BD0220DC
:10256000FDF7DDFF00F08AF910EE101A18EE100AE0
:10257000BDEC028B61F31E0000EE100A10BD00BF1F
:10258000B4F1804F45D300BF00F1FF4CBCF1FE4FCA
:1025900025D200BFB0EEC00A10EE100AC1F3C75C2E
:1025A000BCF17F0F0CDBBCF1970FBFF667AECCF12F
:1025B000960C012404FA0CFCACF101040C4208D086
:1025C0000120FDF7ACFFBDEC028BBDE8104000F030
:1025D0004DB91CEA010F18BFBFEE008A4EE65FEA54
:1025E000400C1CBF4FF0807CBCEB400F0BD96FF050
:1025F0001A03DFED331A20EE210A10EE100A10F054
:10260000004FC7D13AE6A0F5000CBCF1FE4F22D234
:1026100034E60CEB410CBCF1007F12D3F5EEC00A9E
:10262000F1EE10FA06D15FEA400C18BFB2EB400F92
:1026300071D8A9E701F0004141F0FC5100EE901A79
:10264000A2E7BCF1807F06D210EE90CAACF5000C78
:1026500000EE90CA98E720F0004C6FF0FF44194A52
:102660000CEB0403934239D321F000431C44944201
:1026700034D3B0F17E5F27E0001080C0ABAAAA3E41
:102680000000803D7EE24C3E00B03842D49AB8BB98
:102690003BAA3842E4120000FC596337C9FF753A7F
:1026A0001872313DBE120000F212000062120000EA
:1026B0000000FC420000FE420000004B00004043CE
:1026C0000000004DFFFF3F0018BF5FEA410222D02B
:1026D000BCF1FF4F98BFB3F1FF4F05D9BDEC028BA2
:1026E000BDE8104000F0BEB8B0F1FF4F0FD0C1F30D
:1026F000C7527F2A09DB972A12DAC2F19602012318
:1027000003FA02F2531E0B4206D0002209E011F038
:10271000004F55D129E05DE00A4218BF012200D1E7
:10272000022210F5000F13D020B3B0F1004F25D0D6
:1027300010F1814F4ED04FF0FE42B2EB400F94BFEC
:1027400001200020012202EBE171884238D10CE027
:1027500011F0004F02D0012A37D031E0012A02BF28
:102760009FED340ABDEC028B10BD9FED330ABDEC2A
:10277000028B10BD11F0004F0CD121E0B1F1FF4FE1
:102780001ED011F5000F05D011F0004F15D00AB181
:10279000012A08D00220FDF7C2FEBDEC028BBDE885
:1027A000104000F055B80220FDF7B9FE00F050F8D7
:1027B000BDEC028BB1EE400A10BD0AB1012A04D073
:1027C000BDEC028B9FED1D0A10BDBDEC028B9FED91
:1027D0001C0A10BDBDEC028BB7EE000A10BD00BF95
:1027E00030EE410AB5EE001A00EE413AB6EE001A9C
:1027F00060EE001A00EE431A21EEC12A9FED111A75
:1028000060EE011A9FED101A20EE011A9FED0F0ADB
:1028100002EE001A31EE810A10EE100A00F5006097
:102820006FF30B0000EE100A71EEC01A71EE811A00
:10283000C8E50000000080FF0000807F000000006D
:102840000000008000B0B841D49A38BB3BAAB84120
:10285000DFED030AB7EE001A81EE200A7047000090
:102860000000000030EE200A70470000DFED020A91
:1028700080EEA00A70470000000000009FED020AF1
:1028800020EE000A70470000000000709FED020A71
:1028900020EE000A704700000000001030380A28BF
:1028A00001D2012070470020704700BF7047000030
:1028B00010B504466FF00400FFF718FBE11704EBB6
:1028C0005171C1F3C701074A11701046007800EB3F
:1028D0004001C1EBC0104FF6FF7101EAC000024990
:1028E000088010BD100000201200002070B50446C2
:1028F0004FF4077094FBF0F0C6B24FF4077094FBEE
:10290000F0F100FB114085B205E04FF4077000F0D4
:102910002FF8701EC6B2002EF7D115B1284600F070
:1029200027F870BD0146114A12784A434FF0E02360
:102930005A6100229A611A46126942F001021A6134
:1029400000BF4FF0E022106900F001021AB100F45C
:102950008032002AF5D04FF0E022126922F0010205
:102960004FF0E0231A6100229A61704710000020A6
:102970000146114A12884A434FF0E0235A6100226F
:102980009A611A46126942F001021A6100BF4FF0C3
:10299000E022106900F001021AB100F48032002A2E
:1029A000F5D04FF0E022126922F001024FF0E0234F
:1029B0001A6100229A6170471200002070B5054626
:1029C0000E461446234600223146284600F002F8FF
:1029D00070BD00002DE9F04104460D4616461F4625
:1029E00000F0F0FB21460FA0FDF752FC2046FFF758
:1029F0001DFB0FA0FFF71AFB3A463146284600F0B0
:102A00003FFB8046B8F1000F04D0214609A0FDF736
:102A10003FFC03E021460DA0FDF73AFC4046BDE82F
:102A2000F081000053656E6420434D443A202573C5
:102A30000D0A00004553503832363620434D4420AD
:102A40004F4B3A2025730D0A0000000045535038C3
:102A500032363620434D44204552524F523A2025BB
:102A6000730D0A0010B5ADF5027D00241BA0FDF723
:102A70000FFC26A227A12CA0FDF70AFC2EA130A056
:102A8000FDF706FC334834A32BA236A1009002A820
:102A9000FDF70AFC41F288323DA102A8FFF78EFF44
:102AA0004FF4FA7000F0A4FB18A31AA239A102A8EF
:102AB000FDF7FAFB42F2107335A23CA102A8FFF722
:102AC00089FF044614B101203C4908703CA0FDF781
:102AD000DFFB00F06FFA0DF5027D10BD0D0A3D3DE4
:102AE0003D3D3D3D3D3D3D3D20436F6E6E65637414
:102AF000204F6E654E4554207374617274203D3DC5
:102B00003D3D3D3D3D3D3D3D0D0A000031383833F2
:102B1000000000006D717474732E6865636C6F75CE
:102B200064732E636F6D00005365727665723A2090
:102B300025733A25730D0A006573703832363600F6
:102B4000446576696365204E616D653A2025730D95
:102B50000A000000343800086769353063443233B6
:102B6000684D000041542B4D515454555345524328
:102B700046473D302C312C222573222C22257322EE
:102B80002C222573222C302C302C22220000000015
:102B90004F4B000041542B4D515454434F4E4E3D2A
:102BA000302C222573222C25732C31002B4D5154AF
:102BB00054434F4E4E454354454400001F000020EF
:102BC000436F6E6E656374204F6E654E455420648E
:102BD0006F6E650D0A00000000B5C1B013A0FDF7CF
:102BE00057FB1EA11FA0FDF753FB21A123A0FDF75A
:102BF0004FFB1FA319A224A101A8FDF755FB44F622
:102C0000206326A226A101A8FFF7E4FE10B101204F
:102C1000264908704FF4FA6220A125A0FFF7CEFEE6
:102C200026A0FDF735FB41B000BD00000D0A3D3D7B
:102C30003D3D3D3D3D3D3D3D205769466920636F2B
:102C40006E6E656374207374617274203D3D3D3D0A
:102C50003D3D3D3D3D3D0D0A000000004C6A6A4E81
:102C600042000000535349443A2025730D0A0000E6
:102C70004C7A64324C796D32323200005057443A0B
:102C8000202025730D0A000041542B43574A415020
:102C90003D222573222C2225732200004F4B000079
:102CA0005749464920474F54204950001E000020F4
:102CB00041542B434946535200000000576946696E
:102CC00020636F6E6E65637420646F6E650D0A001D
:102CD0001049098840F2FF72914211D20D490A88C9
:102CE0000988491C0B4B19800B49885400210A4A5A
:102CF0001B88D1540A280BD10121084A117007E022
:102D00000021054A034B1B88D1540121034A11704D
:102D1000704700001C000020F00000201A00002076
:102D200010B51AA0FDF7B4FA40F6B83223A124A0DA
:102D3000FFF744FE4FF4FA7000F05AFA40F6B8324A
:102D40001EA120A0FFF73AFE4FF4FA7000F050FAEF
:102D500040F6B83219A11DA0FFF730FE4FF4FA700B
:102D600000F046FA41F288321BA11DA0FFF726FEB3
:102D700040F6B83000F03CFA40F6B8320FA11AA085
:102D8000FFF71CFE1AA0FDF783FA10BD0D0A3D3DAA
:102D90003D3D3D3D3D3D3D3D20455350383236366D
:102DA00020696E6974207374617274203D3D3D3DED
:102DB0003D3D3D3D3D3D0D0A000000004F4B0000F4
:102DC00041540000415445300000000041542B4361
:102DD000574D4F44453D31007265616479000000F4
:102DE00041542B525354000041542B474D52000084
:102DF0003D3D3D3D3D3D3D3D3D3D204553503832FF
:102E0000363620696E697420646F6E65203D3D3DE5
:102E10003D3D3D3D3D3D3D0D0A00000070B5C0B05B
:102E200004460D462846FDF752FB06463346224629
:102E30000FA16846FDF738FA40F6B83213A168468C
:102E4000FFF7BCFD00F0BEF92846FFF7EFF842F2AD
:102E500010730FA212A115A000F05EF918B114A012
:102E6000FDF716FA02E019A0FDF712FA40B070BDA6
:102E700041542B4D5154545055425241573D302CE2
:102E8000222573222C25642C302C30003E000000BB
:102E90002B4D5154545355425245435600000000A7
:102EA0002B4D5154545055423A4F4B004F4B00005C
:102EB0004553503832363620434D44204F4B3A204C
:102EC0007061796C6F61640D0A00000045535038E1
:102ED00032363620434D44204552524F523A2070EC
:102EE00061796C6F61640D0A0000000010B52DED72
:102EF000088BC4B0B0EE408AF0EE608AB0EE419A22
:102F0000B6EE000A39EE000ABDEEC00A10EE104A15
:102F100018EE900A00F02CFB41EC1A0B18EE100A88
:102F200000F026FB41EC1B0B02948DED00AB53EC43
:102F30001B2B0A4904A8FDF7B7F904A908A0FFF75D
:102F40006DFF41F28830FFF7D1FC104910A0FDF76A
:102F50009FF944B0BDEC088B10BD0000B0380008EC
:102F6000247379732F6769353063443233684D2F8A
:102F7000657370383236362F7468696E672F7072D9
:102F80006F70657274792F706F737400F000002099
:102F9000455350383236362041465445522050551C
:102FA000424C495348204255464645523A202573E3
:102FB0000D0A000000B5C1B00DA21AA101A8FDF7CD
:102FC00073F942F210721CA101A8FFF7F7FC20B1BF
:102FD00007A11AA0FDF75CF903E005A11FA0FDF70A
:102FE00057F94FF47A70FFF781FC41B000BD000043
:102FF000247379732F6769353063443233684D2FFA
:10300000657370383236362F7468696E672F707248
:103010006F70657274792F706F73742F7265706C36
:103020007900000041542B4D5154545355423D30CA
:103030002C222573222C30004F4B000053756273F5
:103040006372696265207265706C7920746F706953
:1030500063204F4B3A2025730D0A000053756273AD
:103060006372696265207265706C7920746F706933
:1030700063204552524F523A2025730D0A0000003A
:103080002DE9F04104460D461646002720E01420A5
:1030900000F0AEF807F1140087B224B121461048C1
:1030A000FDF703FA28B93DB129460D48FDF7FDF9B2
:1030B00010B10120BDE8F0810AA10948FDF7F5F93A
:1030C00020B90BA10648FDF7F0F908B10020F1E79F
:1030D000B742DCDB024909A0FDF7DAF80020E9E796
:1030E000F00000200D0A4552524F520D0A00000018
:1030F0000D0A4641494C0D0A000000004553503866
:103100003236362046554C4C204255464645523ABA
:103110002025730D0A0000002DE9F04104460E46FB
:1031200015461F464FF0000827E0142000F060F815
:1031300008F114001FFA80F824B121461348FDF766
:10314000B4F958B926B131461048FDF7AEF928B99F
:103150003DB129460D48FDF7A8F910B10120BDE8A1
:10316000F0810BA10948FDF7A0F920B90BA1074890
:10317000FDF79BF908B10020F1E7B845D5DB03491D
:1031800009A0FDF785F80020E9E70000F000002025
:103190000D0A4552524F520D0A0000000D0A4641D9
:1031A000494C0D0A00000000455350383236362095
:1031B00046554C4C204255464645523A2025730D03
:1031C0000A000000002004E00021064A1154411CBE
:1031D00088B2B0F5006FF7DB0021034A1180034A83
:1031E00011707047F00000201C0000201A00002021
:1031F00006E042F2107100BF0A00A1F10101FBD10B
:103200000200A0F1010398B2F3D1704700BF054A54
:10321000128802F04002002AF9D0C2B2014B9A8013
:1032200070470000001001402DED048B84B0002099
:10323000039002909FED350AB0EE408AA820FFF778
:1032400037FB4FF4E13000F021F94FF4E13000F0AA
:10325000C7F8FFF765FDFEF717FA0446FEF76EFCA8
:103260002BA0FDF715F81CB92EA0FDF711F802E010
:1032700032A0FDF70DF8FFF7AFFCFFF7F3FB34A02A
:10328000FDF706F844F62060FFF730FB35A0FCF7A9
:10329000FFFFFEF739FB39A0FCF7FAFF34E002A983
:1032A00003A8FEF746FA38B13AA0FCF7F1FF41F265
:1032B0008830FFF71BFB27E0FEF768FBB0EE408A83
:1032C00018EE100A00F054F941EC190B8DED009B3B
:1032D0009DF808209DF80C1037A0FCF7D9FFB0EE40
:1032E000481A9DF8080000EE100AF8EE400A9DF812
:1032F0000C0000EE100AB8EE400AFFF7F7FD41F2AD
:103300008830FFF7F3FA00BFC9E7000000000000B3
:103310000D0A53797374656D2073746172740D0AAC
:1033200000000000444854313120696E69742073F4
:103330007563636573730D0A0000000044485431DF
:103340003120696E6974206661696C65640D0A00DC
:103350004D5132207761726D2075702E2E2E0D0A20
:10336000000000004D51322063616C69627261742B
:10337000696E672E2E2E0D0A000000004D5132207E
:1033800063616C6962726174696F6E20646F6E65EF
:103390000D0A000044485431312072656164206692
:1033A00061696C65642C20736B69702075706C6F3B
:1033B00061640D0A0000000054656D703D256420B5
:1033C000432C2048756D3D25642025252C20536D08
:1033D0006F6B653D252E32662070706D0D0A000002
:1033E00010B588B0044601210220FEF763FC0121DC
:1033F0008804FEF76FFC07220A212248FEF72FFA05
:1034000007220B211F48FEF72AFA4FF4406006906E
:1034100002208DF81C008DF81D0000208DF81E0084
:1034200001208DF81F0006A91648FEF7D0F9029476
:103430000020ADF80C00ADF80E00ADF81000ADF8AE
:1034400014000C20ADF8120002A90F48FEF75EFE32
:1034500001210D48FEF7FEFD012240F225510A48E8
:10346000FEF72EFE27208DF8040003208DF80500BE
:103470008DF8060001208DF8070001A8FEF7DCFB9F
:1034800008B010BD000402400048004010B588B0EC
:10349000044601210846FEF70DFC01211020FEF72D
:1034A00029FC072209212248FEF7D9F907220A211F
:1034B0001F48FEF7D4F94FF4C060069002208DF843
:1034C0001C008DF81D0000208DF81E0001208DF8D5
:1034D0001F0006A91648FEF77AF902940020ADF8FD
:1034E0000C00ADF80E00ADF81000ADF814000C2083
:1034F000ADF8120002A90F48FEF708FE01210D48A1
:10350000FEF7A8FD012240F225510A48FEF7D8FD3A
:1035100025208DF8040003208DF805008DF80600A5
:1035200001208DF8070001A8FEF786FB08B010BD4A
:10353000000002400010014010B500290AD00878B0
:10354000002807D005487844FDF7CCFB002801D0BF
:10355000002010BD0248784410BD0000F2030000B6
:10356000EA0300000808A0F500114FEA3101704796
:1035700043004FEAD30C4FEA3C0C43401FBF4007C7
:103580000CF1605113F0FE4F70471CF0006F03D137
:1035900000200CF0004170470CF0004343EA5070EB
:1035A00010B540EACC0000F00EF800BF0000009219
:1035B0004FEA0001FFF7D6BF4FF000414FF0000087
:1035C000A1F5002170470EF1020E2EF0030E5EF8F9
:1035D000044B244204D44FEA4102B2F17F4F11D888
:1035E0004FEA4003B3F17F4F0CD80ED14FEAD07CA5
:1035F000B2F17F4F0CEB4C0C0CF1020C08BF4CEB02
:10360000D17C04E04FF0080C01E04FEAD17C0CEBD8
:103610004C0324FA03F404F00704B4F1040C06D2BA
:103620000EEB840CBDE810404CF0010C6047DFE865
:103630000CF0070802024FF00040A0F5800010BD1A
:103640000846420018BFD2F1807288BF00F00040E7
:1036500010BD4FF04070E1EE100A7047FDF795B8CD
:1036600000000000000000000000B33FB2BE7D3A41
:1036700000002E40DFCF513800007E40BF51FABA23
:1036800000E0A44019DAC3BA00E0C840C2ED8AB92C
:103690000040EB40CD1F2CBA001006412AFFFABAB9
:1036A00000C01541DFCFD13700D024419A97703A3E
:1036B0000050334189478E3600404141E75B9D38D9
:1036C00000B04E41C00A98B900A05B41558F943AB2
:1036D00000306841DA92C0BA0040744162B3C63A21
:1036E0000000803F00A0853F00908B3F00C0913FCD
:1036F0000030983F00F09E3F00F0A53F0050AD3FE6
:103700000000B53F0000BD3F0060C53F0020CE3F38
:103710000040D73F00C0E03F00C0EA3F0020F53F37
:10372000000000007D36AC397D3C3839EBDCF438E4
:10373000320A7E39124C26399B6AED39A4EE833960
:103740007F661E39F6398A392B426539A4821139D0
:103750005B991F39C3EECD39DDE7C637A5A22F39F6
:103760000000803FC3AA853FC2958B3FD3C3913FE2
:10377000F037983F32F59E3FD7FEA53F3F58AD3F0B
:10378000F304B53FA408BD3F2A67C53F8C24CE3F54
:10379000FD44D73FDFCCE03FC7C0EA3F7D25F53F82
:1037A00002400000000000A00000000005400000F2
:1037B000000000C8000000000C4000000000409C19
:1037C00000000000194000000020BCBE0000000006
:1037D00034400000BFC91B8E00000004B54000004B
:1037E000504BCFD06607E2CF010000006C410000D3
:1037F0003E8251AADFEEA73401000000D94200004A
:10380000DCB5A0E23A301F97FFFFFFFFB445000090
:10381000FD25A0C8E9A3C14FFFFFFFFFFF3F000048
:103820000000008000000000FF3F0000000000805A
:103830000000000076657273696F6E3D323031387A
:103840002D31302D3331267265733D70726F647582
:103850006374732532466769353063443233684D8B
:1038600025324664657669636573253246657370F3
:10387000383236362665743D323139323637323792
:103880003738266D6574686F643D6D6435267369DD
:10389000676E3D5151774E715561556430643549BD
:1038A00035734F6B336F63496725334425334400C9
:1038B0007B226964223A2231222C22766572736956
:1038C0006F6E223A22312E30222C22706172616D8D
:1038D00073223A7B2254656D70223A7B2276616CAA
:1038E0007565223A252E32667D2C2248756D223A66
:1038F0007B2276616C7565223A252E32667D2C22FC
:10390000536D6F6B65223A7B2276616C7565223A46
:1039100025647D7D7D0000005439000800000020F2
:1039200028000000C40100087C390008280000209D
:10393000400F0000E00100081C00000043000000F0
:10394000F8FFFFFF0C0000000E0000000F00000059
:103950002E00000000000000010203040102030425
:103960000607080900000000000000000000000039
:0C397000000000000000803F000000008C
:040000050800018965
:00000001FF
